{"contracts/Sukuna.sol":{"Sukuna":{"abi":[{"inputs":[],"stateMutability":"nonpayable","type":"constructor"},{"inputs":[],"name":"ApprovalCallerNotOwnerNorApproved","type":"error"},{"inputs":[],"name":"ApprovalQueryForNonexistentToken","type":"error"},{"inputs":[],"name":"BalanceQueryForZeroAddress","type":"error"},{"inputs":[],"name":"MintERC2309QuantityExceedsLimit","type":"error"},{"inputs":[],"name":"MintToZeroAddress","type":"error"},{"inputs":[],"name":"MintZeroQuantity","type":"error"},{"inputs":[],"name":"OwnerQueryForNonexistentToken","type":"error"},{"inputs":[],"name":"OwnershipNotInitializedForExtraData","type":"error"},{"inputs":[{"internalType":"string","name":"message","type":"string"}],"name":"QuantityInvalid","type":"error"},{"inputs":[],"name":"TransferCallerNotOwnerNorApproved","type":"error"},{"inputs":[],"name":"TransferFromIncorrectOwner","type":"error"},{"inputs":[],"name":"TransferToNonERC721ReceiverImplementer","type":"error"},{"inputs":[],"name":"TransferToZeroAddress","type":"error"},{"inputs":[],"name":"URIQueryForNonexistentToken","type":"error"},{"anonymous":false,"inputs":[{"indexed":true,"internalType":"address","name":"owner","type":"address"},{"indexed":true,"internalType":"address","name":"approved","type":"address"},{"indexed":true,"internalType":"uint256","name":"tokenId","type":"uint256"}],"name":"Approval","type":"event"},{"anonymous":false,"inputs":[{"indexed":true,"internalType":"address","name":"owner","type":"address"},{"indexed":true,"internalType":"address","name":"operator","type":"address"},{"indexed":false,"internalType":"bool","name":"approved","type":"bool"}],"name":"ApprovalForAll","type":"event"},{"anonymous":false,"inputs":[{"indexed":true,"internalType":"uint256","name":"fromTokenId","type":"uint256"},{"indexed":false,"internalType":"uint256","name":"toTokenId","type":"uint256"},{"indexed":true,"internalType":"address","name":"from","type":"address"},{"indexed":true,"internalType":"address","name":"to","type":"address"}],"name":"ConsecutiveTransfer","type":"event"},{"anonymous":false,"inputs":[{"indexed":true,"internalType":"address","name":"from","type":"address"},{"indexed":true,"internalType":"address","name":"to","type":"address"},{"indexed":true,"internalType":"uint256","name":"tokenId","type":"uint256"}],"name":"Transfer","type":"event"},{"inputs":[],"name":"MAX_SUPPLY","outputs":[{"internalType":"uint256","name":"","type":"uint256"}],"stateMutability":"view","type":"function"},{"inputs":[{"internalType":"address","name":"to","type":"address"},{"internalType":"uint256","name":"tokenId","type":"uint256"}],"name":"approve","outputs":[],"stateMutability":"payable","type":"function"},{"inputs":[{"internalType":"address","name":"owner","type":"address"}],"name":"balanceOf","outputs":[{"internalType":"uint256","name":"","type":"uint256"}],"stateMutability":"view","type":"function"},{"inputs":[],"name":"baseURI","outputs":[{"internalType":"string","name":"","type":"string"}],"stateMutability":"view","type":"function"},{"inputs":[{"internalType":"uint256","name":"tokenId","type":"uint256"}],"name":"getApproved","outputs":[{"internalType":"address","name":"","type":"address"}],"stateMutability":"view","type":"function"},{"inputs":[],"name":"getName","outputs":[{"internalType":"string","name":"","type":"string"}],"stateMutability":"view","type":"function"},{"inputs":[],"name":"getSymbol","outputs":[{"internalType":"string","name":"","type":"string"}],"stateMutability":"view","type":"function"},{"inputs":[{"internalType":"address","name":"owner","type":"address"},{"internalType":"address","name":"operator","type":"address"}],"name":"isApprovedForAll","outputs":[{"internalType":"bool","name":"","type":"bool"}],"stateMutability":"view","type":"function"},{"inputs":[{"internalType":"uint256","name":"quantity","type":"uint256"}],"name":"mint","outputs":[],"stateMutability":"payable","type":"function"},{"inputs":[],"name":"name","outputs":[{"internalType":"string","name":"","type":"string"}],"stateMutability":"view","type":"function"},{"inputs":[],"name":"owner","outputs":[{"internalType":"address","name":"","type":"address"}],"stateMutability":"view","type":"function"},{"inputs":[{"internalType":"uint256","name":"tokenId","type":"uint256"}],"name":"ownerOf","outputs":[{"internalType":"address","name":"","type":"address"}],"stateMutability":"view","type":"function"},{"inputs":[],"name":"promptDescription","outputs":[{"internalType":"string","name":"","type":"string"}],"stateMutability":"pure","type":"function"},{"inputs":[{"internalType":"address","name":"from","type":"address"},{"internalType":"address","name":"to","type":"address"},{"internalType":"uint256","name":"tokenId","type":"uint256"}],"name":"safeTransferFrom","outputs":[],"stateMutability":"payable","type":"function"},{"inputs":[{"internalType":"address","name":"from","type":"address"},{"internalType":"address","name":"to","type":"address"},{"internalType":"uint256","name":"tokenId","type":"uint256"},{"internalType":"bytes","name":"_data","type":"bytes"}],"name":"safeTransferFrom","outputs":[],"stateMutability":"payable","type":"function"},{"inputs":[{"internalType":"address","name":"operator","type":"address"},{"internalType":"bool","name":"approved","type":"bool"}],"name":"setApprovalForAll","outputs":[],"stateMutability":"nonpayable","type":"function"},{"inputs":[{"internalType":"bytes4","name":"interfaceId","type":"bytes4"}],"name":"supportsInterface","outputs":[{"internalType":"bool","name":"","type":"bool"}],"stateMutability":"view","type":"function"},{"inputs":[],"name":"symbol","outputs":[{"internalType":"string","name":"","type":"string"}],"stateMutability":"view","type":"function"},{"inputs":[{"internalType":"uint256","name":"tokenId","type":"uint256"}],"name":"tokenURI","outputs":[{"internalType":"string","name":"","type":"string"}],"stateMutability":"view","type":"function"},{"inputs":[],"name":"totalSupply","outputs":[{"internalType":"uint256","name":"","type":"uint256"}],"stateMutability":"view","type":"function"},{"inputs":[{"internalType":"address","name":"from","type":"address"},{"internalType":"address","name":"to","type":"address"},{"internalType":"uint256","name":"tokenId","type":"uint256"}],"name":"transferFrom","outputs":[],"stateMutability":"payable","type":"function"}],"evm":{"bytecode":{"linkReferences":{},"object":"60806040526040518060800160405280605181526020016200258760519139600890816200002e9190620003ab565b503480156200003c57600080fd5b506040518060400160405280600681526020017f53756b756e6100000000000000000000000000000000000000000000000000008152506040518060400160405280600681526020017f53756b756e6100000000000000000000000000000000000000000000000000008152508160029081620000ba9190620003ab565b508060039081620000cc9190620003ab565b50620000dd6200012c60201b60201c565b600081905550505033600960006101000a81548173ffffffffffffffffffffffffffffffffffffffff021916908373ffffffffffffffffffffffffffffffffffffffff16021790555062000492565b600090565b600081519050919050565b7f4e487b7100000000000000000000000000000000000000000000000000000000600052604160045260246000fd5b7f4e487b7100000000000000000000000000000000000000000000000000000000600052602260045260246000fd5b60006002820490506001821680620001b357607f821691505b602082108103620001c957620001c86200016b565b5b50919050565b60008190508160005260206000209050919050565b60006020601f8301049050919050565b600082821b905092915050565b600060088302620002337fffffffffffffffffffffffffffffffffffffffffffffffffffffffffffffffff82620001f4565b6200023f8683620001f4565b95508019841693508086168417925050509392505050565b6000819050919050565b6000819050919050565b60006200028c62000286620002808462000257565b62000261565b62000257565b9050919050565b6000819050919050565b620002a8836200026b565b620002c0620002b78262000293565b84845462000201565b825550505050565b600090565b620002d7620002c8565b620002e48184846200029d565b505050565b5b818110156200030c5762000300600082620002cd565b600181019050620002ea565b5050565b601f8211156200035b576200032581620001cf565b6200033084620001e4565b8101602085101562000340578190505b620003586200034f85620001e4565b830182620002e9565b50505b505050565b600082821c905092915050565b6000620003806000198460080262000360565b1980831691505092915050565b60006200039b83836200036d565b9150826002028217905092915050565b620003b68262000131565b67ffffffffffffffff811115620003d257620003d16200013c565b5b620003de82546200019a565b620003eb82828562000310565b600060209050601f8311600181146200042357600084156200040e578287015190505b6200041a85826200038d565b8655506200048a565b601f1984166200043386620001cf565b60005b828110156200045d5784890151825560018201915060208501945060208101905062000436565b868310156200047d578489015162000479601f8916826200036d565b8355505b6001600288020188555050505b505050505050565b6120e580620004a26000396000f3fe60806040526004361061012a5760003560e01c80636352211e116100ab57806395d89b411161006f57806395d89b41146103cf578063a0712d68146103fa578063a22cb46514610416578063b88d4fde1461043f578063c87b56dd1461045b578063e985e9c5146104985761012a565b80636352211e146102d45780636c0360eb1461031157806370a082311461033c5780638da5cb5b1461037957806395363731146103a45761012a565b806317d7de7c116100f257806317d7de7c1461021b57806318160ddd1461024657806323b872dd1461027157806332cb6b0c1461028d57806342842e0e146102b85761012a565b806301ffc9a71461012f57806306fdde031461016c578063081812fc14610197578063095ea7b3146101d457806315070401146101f0575b600080fd5b34801561013b57600080fd5b506101566004803603810190610151919061185d565b6104d5565b60405161016391906118a5565b60405180910390f35b34801561017857600080fd5b50610181610567565b60405161018e9190611950565b60405180910390f35b3480156101a357600080fd5b506101be60048036038101906101b991906119a8565b6105f9565b6040516101cb9190611a16565b60405180910390f35b6101ee60048036038101906101e99190611a5d565b610678565b005b3480156101fc57600080fd5b506102056107bc565b6040516102129190611950565b60405180910390f35b34801561022757600080fd5b506102306107cb565b60405161023d9190611950565b60405180910390f35b34801561025257600080fd5b5061025b6107da565b6040516102689190611aac565b60405180910390f35b61028b60048036038101906102869190611ac7565b6107f1565b005b34801561029957600080fd5b506102a2610b13565b6040516102af9190611aac565b60405180910390f35b6102d260048036038101906102cd9190611ac7565b610b18565b005b3480156102e057600080fd5b506102fb60048036038101906102f691906119a8565b610b38565b6040516103089190611a16565b60405180910390f35b34801561031d57600080fd5b50610326610b4a565b6040516103339190611950565b60405180910390f35b34801561034857600080fd5b50610363600480360381019061035e9190611b1a565b610bd8565b6040516103709190611aac565b60405180910390f35b34801561038557600080fd5b5061038e610c90565b60405161039b9190611a16565b60405180910390f35b3480156103b057600080fd5b506103b9610cb6565b6040516103c69190611950565b60405180910390f35b3480156103db57600080fd5b506103e4610cf3565b6040516103f19190611950565b60405180910390f35b610414600480360381019061040f91906119a8565b610d85565b005b34801561042257600080fd5b5061043d60048036038101906104389190611b73565b610e7e565b005b61045960048036038101906104549190611ce8565b610f89565b005b34801561046757600080fd5b50610482600480360381019061047d91906119a8565b610ffc565b60405161048f9190611950565b60405180910390f35b3480156104a457600080fd5b506104bf60048036038101906104ba9190611d6b565b61109a565b6040516104cc91906118a5565b60405180910390f35b60006301ffc9a760e01b827bffffffffffffffffffffffffffffffffffffffffffffffffffffffff1916148061053057506380ac58cd60e01b827bffffffffffffffffffffffffffffffffffffffffffffffffffffffff1916145b806105605750635b5e139f60e01b827bffffffffffffffffffffffffffffffffffffffffffffffffffffffff1916145b9050919050565b60606002805461057690611dda565b80601f01602080910402602001604051908101604052809291908181526020018280546105a290611dda565b80156105ef5780601f106105c4576101008083540402835291602001916105ef565b820191906000526020600020905b8154815290600101906020018083116105d257829003601f168201915b5050505050905090565b60006106048261112e565b61063a576040517fcf4700e400000000000000000000000000000000000000000000000000000000815260040160405180910390fd5b6006600083815260200190815260200160002060000160009054906101000a900473ffffffffffffffffffffffffffffffffffffffff169050919050565b600061068382610b38565b90508073ffffffffffffffffffffffffffffffffffffffff166106a461118d565b73ffffffffffffffffffffffffffffffffffffffff1614610707576106d0816106cb61118d565b61109a565b610706576040517fcfb3b94200000000000000000000000000000000000000000000000000000000815260040160405180910390fd5b5b826006600084815260200190815260200160002060000160006101000a81548173ffffffffffffffffffffffffffffffffffffffff021916908373ffffffffffffffffffffffffffffffffffffffff160217905550818373ffffffffffffffffffffffffffffffffffffffff168273ffffffffffffffffffffffffffffffffffffffff167f8c5be1e5ebec7d5bd14f71427d1e84f3dd0314c0f7b2291e5b200ac8c7c3b92560405160405180910390a4505050565b60606107c6610cf3565b905090565b60606107d5610567565b905090565b60006107e4611195565b6001546000540303905090565b60006107fc8261119a565b90508373ffffffffffffffffffffffffffffffffffffffff168173ffffffffffffffffffffffffffffffffffffffff1614610863576040517fa114810000000000000000000000000000000000000000000000000000000000815260040160405180910390fd5b60008061086f84611266565b91509150610885818761088061118d565b61128d565b6108d15761089a8661089561118d565b61109a565b6108d0576040517f59c896be00000000000000000000000000000000000000000000000000000000815260040160405180910390fd5b5b600073ffffffffffffffffffffffffffffffffffffffff168573ffffffffffffffffffffffffffffffffffffffff1603610937576040517fea553b3400000000000000000000000000000000000000000000000000000000815260040160405180910390fd5b61094486868660016112d1565b801561094f57600082555b600560008773ffffffffffffffffffffffffffffffffffffffff1673ffffffffffffffffffffffffffffffffffffffff168152602001908152602001600020600081546001900391905081905550600560008673ffffffffffffffffffffffffffffffffffffffff1673ffffffffffffffffffffffffffffffffffffffff1681526020019081526020016000206000815460010191905081905550610a1d856109f98888876112d7565b7c0200000000000000000000000000000000000000000000000000000000176112ff565b600460008681526020019081526020016000208190555060007c0200000000000000000000000000000000000000000000000000000000841603610aa35760006001850190506000600460008381526020019081526020016000205403610aa1576000548114610aa0578360046000838152602001908152602001600020819055505b5b505b838573ffffffffffffffffffffffffffffffffffffffff168773ffffffffffffffffffffffffffffffffffffffff167fddf252ad1be2c89b69c2b068fc378daa952ba7f163c4a11628f55a4df523b3ef60405160405180910390a4610b0b868686600161132a565b505050505050565b600581565b610b3383838360405180602001604052806000815250610f89565b505050565b6000610b438261119a565b9050919050565b60088054610b5790611dda565b80601f0160208091040260200160405190810160405280929190818152602001828054610b8390611dda565b8015610bd05780601f10610ba557610100808354040283529160200191610bd0565b820191906000526020600020905b815481529060010190602001808311610bb357829003601f168201915b505050505081565b60008073ffffffffffffffffffffffffffffffffffffffff168273ffffffffffffffffffffffffffffffffffffffff1603610c3f576040517f8f4eb60400000000000000000000000000000000000000000000000000000000815260040160405180910390fd5b67ffffffffffffffff600560008473ffffffffffffffffffffffffffffffffffffffff1673ffffffffffffffffffffffffffffffffffffffff16815260200190815260200160002054169050919050565b600960009054906101000a900473ffffffffffffffffffffffffffffffffffffffff1681565b60606040518060400160405280600e81526020017f73756b756e61206a756a75747375000000000000000000000000000000000000815250905090565b606060038054610d0290611dda565b80601f0160208091040260200160405190810160405280929190818152602001828054610d2e90611dda565b8015610d7b5780601f10610d5057610100808354040283529160200191610d7b565b820191906000526020600020905b815481529060010190602001808311610d5e57829003601f168201915b5050505050905090565b600960009054906101000a900473ffffffffffffffffffffffffffffffffffffffff1673ffffffffffffffffffffffffffffffffffffffff163373ffffffffffffffffffffffffffffffffffffffff1614610e15576040517f08c379a0000000000000000000000000000000000000000000000000000000008152600401610e0c90611e7d565b60405180910390fd5b600081610e206107da565b610e2a9190611ecc565b90506005811115610e70576040517f11a8ec57000000000000000000000000000000000000000000000000000000008152600401610e6790611f4c565b60405180910390fd5b610e7a3383611330565b5050565b8060076000610e8b61118d565b73ffffffffffffffffffffffffffffffffffffffff1673ffffffffffffffffffffffffffffffffffffffff16815260200190815260200160002060008473ffffffffffffffffffffffffffffffffffffffff1673ffffffffffffffffffffffffffffffffffffffff16815260200190815260200160002060006101000a81548160ff0219169083151502179055508173ffffffffffffffffffffffffffffffffffffffff16610f3861118d565b73ffffffffffffffffffffffffffffffffffffffff167f17307eab39ab6107e8899845ad3d59bd9653f200f220920489ca2b5937696c3183604051610f7d91906118a5565b60405180910390a35050565b610f948484846107f1565b60008373ffffffffffffffffffffffffffffffffffffffff163b14610ff657610fbf8484848461134e565b610ff5576040517fd1a57ed600000000000000000000000000000000000000000000000000000000815260040160405180910390fd5b5b50505050565b60606110078261112e565b61103d576040517fa14c4b5000000000000000000000000000000000000000000000000000000000815260040160405180910390fd5b600061104761149e565b905060008151036110675760405180602001604052806000815250611092565b8061107184611530565b604051602001611082929190611fa8565b6040516020818303038152906040525b915050919050565b6000600760008473ffffffffffffffffffffffffffffffffffffffff1673ffffffffffffffffffffffffffffffffffffffff16815260200190815260200160002060008373ffffffffffffffffffffffffffffffffffffffff1673ffffffffffffffffffffffffffffffffffffffff16815260200190815260200160002060009054906101000a900460ff16905092915050565b600081611139611195565b11158015611148575060005482105b8015611186575060007c0100000000000000000000000000000000000000000000000000000000600460008581526020019081526020016000205416145b9050919050565b600033905090565b600090565b600080829050806111a9611195565b1161122f5760005481101561122e5760006004600083815260200190815260200160002054905060007c010000000000000000000000000000000000000000000000000000000082160361122c575b600081036112225760046000836001900393508381526020019081526020016000205490506111f8565b8092505050611261565b505b5b6040517fdf2d9b4200000000000000000000000000000000000000000000000000000000815260040160405180910390fd5b919050565b60008060006006600085815260200190815260200160002090508092508254915050915091565b600073ffffffffffffffffffffffffffffffffffffffff8316925073ffffffffffffffffffffffffffffffffffffffff821691508382148383141790509392505050565b50505050565b60008060e883901c905060e86112ee868684611580565b62ffffff16901b9150509392505050565b600073ffffffffffffffffffffffffffffffffffffffff83169250814260a01b178317905092915050565b50505050565b61134a828260405180602001604052806000815250611589565b5050565b60008373ffffffffffffffffffffffffffffffffffffffff1663150b7a0261137461118d565b8786866040518563ffffffff1660e01b81526004016113969493929190612021565b6020604051808303816000875af19250505080156113d257506040513d601f19601f820116820180604052508101906113cf9190612082565b60015b61144b573d8060008114611402576040519150601f19603f3d011682016040523d82523d6000602084013e611407565b606091505b506000815103611443576040517fd1a57ed600000000000000000000000000000000000000000000000000000000815260040160405180910390fd5b805181602001fd5b63150b7a0260e01b7bffffffffffffffffffffffffffffffffffffffffffffffffffffffff1916817bffffffffffffffffffffffffffffffffffffffffffffffffffffffff191614915050949350505050565b6060600880546114ad90611dda565b80601f01602080910402602001604051908101604052809291908181526020018280546114d990611dda565b80156115265780601f106114fb57610100808354040283529160200191611526565b820191906000526020600020905b81548152906001019060200180831161150957829003601f168201915b5050505050905090565b606060a060405101806040526020810391506000825281835b60011561156b57600184039350600a81066030018453600a8104905080611549575b50828103602084039350808452505050919050565b60009392505050565b6115938383611626565b60008373ffffffffffffffffffffffffffffffffffffffff163b1461162157600080549050600083820390505b6115d3600086838060010194508661134e565b611609576040517fd1a57ed600000000000000000000000000000000000000000000000000000000815260040160405180910390fd5b8181106115c057816000541461161e57600080fd5b50505b505050565b60008054905060008203611666576040517fb562e8dd00000000000000000000000000000000000000000000000000000000815260040160405180910390fd5b61167360008483856112d1565b600160406001901b178202600560008573ffffffffffffffffffffffffffffffffffffffff1673ffffffffffffffffffffffffffffffffffffffff168152602001908152602001600020600082825401925050819055506116ea836116db60008660006112d7565b6116e4856117e1565b176112ff565b6004600083815260200190815260200160002081905550600080838301905073ffffffffffffffffffffffffffffffffffffffff85169150828260007fddf252ad1be2c89b69c2b068fc378daa952ba7f163c4a11628f55a4df523b3ef600080a4600183015b81811461178b57808360007fddf252ad1be2c89b69c2b068fc378daa952ba7f163c4a11628f55a4df523b3ef600080a4600181019050611750565b50600082036117c6576040517f2e07630000000000000000000000000000000000000000000000000000000000815260040160405180910390fd5b8060008190555050506117dc600084838561132a565b505050565b60006001821460e11b9050919050565b6000604051905090565b600080fd5b600080fd5b60007fffffffff0000000000000000000000000000000000000000000000000000000082169050919050565b61183a81611805565b811461184557600080fd5b50565b60008135905061185781611831565b92915050565b600060208284031215611873576118726117fb565b5b600061188184828501611848565b91505092915050565b60008115159050919050565b61189f8161188a565b82525050565b60006020820190506118ba6000830184611896565b92915050565b600081519050919050565b600082825260208201905092915050565b60005b838110156118fa5780820151818401526020810190506118df565b60008484015250505050565b6000601f19601f8301169050919050565b6000611922826118c0565b61192c81856118cb565b935061193c8185602086016118dc565b61194581611906565b840191505092915050565b6000602082019050818103600083015261196a8184611917565b905092915050565b6000819050919050565b61198581611972565b811461199057600080fd5b50565b6000813590506119a28161197c565b92915050565b6000602082840312156119be576119bd6117fb565b5b60006119cc84828501611993565b91505092915050565b600073ffffffffffffffffffffffffffffffffffffffff82169050919050565b6000611a00826119d5565b9050919050565b611a10816119f5565b82525050565b6000602082019050611a2b6000830184611a07565b92915050565b611a3a816119f5565b8114611a4557600080fd5b50565b600081359050611a5781611a31565b92915050565b60008060408385031215611a7457611a736117fb565b5b6000611a8285828601611a48565b9250506020611a9385828601611993565b9150509250929050565b611aa681611972565b82525050565b6000602082019050611ac16000830184611a9d565b92915050565b600080600060608486031215611ae057611adf6117fb565b5b6000611aee86828701611a48565b9350506020611aff86828701611a48565b9250506040611b1086828701611993565b9150509250925092565b600060208284031215611b3057611b2f6117fb565b5b6000611b3e84828501611a48565b91505092915050565b611b508161188a565b8114611b5b57600080fd5b50565b600081359050611b6d81611b47565b92915050565b60008060408385031215611b8a57611b896117fb565b5b6000611b9885828601611a48565b9250506020611ba985828601611b5e565b9150509250929050565b600080fd5b600080fd5b7f4e487b7100000000000000000000000000000000000000000000000000000000600052604160045260246000fd5b611bf582611906565b810181811067ffffffffffffffff82111715611c1457611c13611bbd565b5b80604052505050565b6000611c276117f1565b9050611c338282611bec565b919050565b600067ffffffffffffffff821115611c5357611c52611bbd565b5b611c5c82611906565b9050602081019050919050565b82818337600083830152505050565b6000611c8b611c8684611c38565b611c1d565b905082815260208101848484011115611ca757611ca6611bb8565b5b611cb2848285611c69565b509392505050565b600082601f830112611ccf57611cce611bb3565b5b8135611cdf848260208601611c78565b91505092915050565b60008060008060808587031215611d0257611d016117fb565b5b6000611d1087828801611a48565b9450506020611d2187828801611a48565b9350506040611d3287828801611993565b925050606085013567ffffffffffffffff811115611d5357611d52611800565b5b611d5f87828801611cba565b91505092959194509250565b60008060408385031215611d8257611d816117fb565b5b6000611d9085828601611a48565b9250506020611da185828601611a48565b9150509250929050565b7f4e487b7100000000000000000000000000000000000000000000000000000000600052602260045260246000fd5b60006002820490506001821680611df257607f821691505b602082108103611e0557611e04611dab565b5b50919050565b7f4f6e6c7920636f6e7472616374206f776e65722063616e2063616c6c2074686960008201527f732066756e6374696f6e00000000000000000000000000000000000000000000602082015250565b6000611e67602a836118cb565b9150611e7282611e0b565b604082019050919050565b60006020820190508181036000830152611e9681611e5a565b9050919050565b7f4e487b7100000000000000000000000000000000000000000000000000000000600052601160045260246000fd5b6000611ed782611972565b9150611ee283611972565b9250828201905080821115611efa57611ef9611e9d565b5b92915050565b7f596f757220676976656e207175616e7469747920697320696e76616c69640000600082015250565b6000611f36601e836118cb565b9150611f4182611f00565b602082019050919050565b60006020820190508181036000830152611f6581611f29565b9050919050565b600081905092915050565b6000611f82826118c0565b611f8c8185611f6c565b9350611f9c8185602086016118dc565b80840191505092915050565b6000611fb48285611f77565b9150611fc08284611f77565b91508190509392505050565b600081519050919050565b600082825260208201905092915050565b6000611ff382611fcc565b611ffd8185611fd7565b935061200d8185602086016118dc565b61201681611906565b840191505092915050565b60006080820190506120366000830187611a07565b6120436020830186611a07565b6120506040830185611a9d565b81810360608301526120628184611fe8565b905095945050505050565b60008151905061207c81611831565b92915050565b600060208284031215612098576120976117fb565b5b60006120a68482850161206d565b9150509291505056fea2646970667358221220248a049e35a7f34b682029975441509876dd2ee64c5a11e4cac4dd2a038a1e8064736f6c6343000813003368747470733a2f2f676174657761792e70696e6174612e636c6f75642f697066732f516d647675554c6a4a4b4b6a38684258725243713236683370336f6d717774395a4a52343441433643755834324b2f","opcodes":"PUSH1 0x80 PUSH1 0x40 MSTORE PUSH1 0x40 MLOAD DUP1 PUSH1 0x80 ADD PUSH1 0x40 MSTORE DUP1 PUSH1 0x51 DUP2 MSTORE PUSH1 0x20 ADD PUSH3 0x2587 PUSH1 0x51 SWAP2 CODECOPY PUSH1 0x8 SWAP1 DUP2 PUSH3 0x2E SWAP2 SWAP1 PUSH3 0x3AB JUMP JUMPDEST POP CALLVALUE DUP1 ISZERO PUSH3 0x3C JUMPI PUSH1 0x0 DUP1 REVERT JUMPDEST POP PUSH1 0x40 MLOAD DUP1 PUSH1 0x40 ADD PUSH1 0x40 MSTORE DUP1 PUSH1 0x6 DUP2 MSTORE PUSH1 0x20 ADD PUSH32 0x53756B756E610000000000000000000000000000000000000000000000000000 DUP2 MSTORE POP PUSH1 0x40 MLOAD DUP1 PUSH1 0x40 ADD PUSH1 0x40 MSTORE DUP1 PUSH1 0x6 DUP2 MSTORE PUSH1 0x20 ADD PUSH32 0x53756B756E610000000000000000000000000000000000000000000000000000 DUP2 MSTORE POP DUP2 PUSH1 0x2 SWAP1 DUP2 PUSH3 0xBA SWAP2 SWAP1 PUSH3 0x3AB JUMP JUMPDEST POP DUP1 PUSH1 0x3 SWAP1 DUP2 PUSH3 0xCC SWAP2 SWAP1 PUSH3 0x3AB JUMP JUMPDEST POP PUSH3 0xDD PUSH3 0x12C PUSH1 0x20 SHL PUSH1 0x20 SHR JUMP JUMPDEST PUSH1 0x0 DUP2 SWAP1 SSTORE POP POP POP CALLER PUSH1 0x9 PUSH1 0x0 PUSH2 0x100 EXP DUP2 SLOAD DUP2 PUSH20 0xFFFFFFFFFFFFFFFFFFFFFFFFFFFFFFFFFFFFFFFF MUL NOT AND SWAP1 DUP4 PUSH20 0xFFFFFFFFFFFFFFFFFFFFFFFFFFFFFFFFFFFFFFFF AND MUL OR SWAP1 SSTORE POP PUSH3 0x492 JUMP JUMPDEST PUSH1 0x0 SWAP1 JUMP JUMPDEST PUSH1 0x0 DUP2 MLOAD SWAP1 POP SWAP2 SWAP1 POP JUMP JUMPDEST PUSH32 0x4E487B7100000000000000000000000000000000000000000000000000000000 PUSH1 0x0 MSTORE PUSH1 0x41 PUSH1 0x4 MSTORE PUSH1 0x24 PUSH1 0x0 REVERT JUMPDEST PUSH32 0x4E487B7100000000000000000000000000000000000000000000000000000000 PUSH1 0x0 MSTORE PUSH1 0x22 PUSH1 0x4 MSTORE PUSH1 0x24 PUSH1 0x0 REVERT JUMPDEST PUSH1 0x0 PUSH1 0x2 DUP3 DIV SWAP1 POP PUSH1 0x1 DUP3 AND DUP1 PUSH3 0x1B3 JUMPI PUSH1 0x7F DUP3 AND SWAP2 POP JUMPDEST PUSH1 0x20 DUP3 LT DUP2 SUB PUSH3 0x1C9 JUMPI PUSH3 0x1C8 PUSH3 0x16B JUMP JUMPDEST JUMPDEST POP SWAP2 SWAP1 POP JUMP JUMPDEST PUSH1 0x0 DUP2 SWAP1 POP DUP2 PUSH1 0x0 MSTORE PUSH1 0x20 PUSH1 0x0 KECCAK256 SWAP1 POP SWAP2 SWAP1 POP JUMP JUMPDEST PUSH1 0x0 PUSH1 0x20 PUSH1 0x1F DUP4 ADD DIV SWAP1 POP SWAP2 SWAP1 POP JUMP JUMPDEST PUSH1 0x0 DUP3 DUP3 SHL SWAP1 POP SWAP3 SWAP2 POP POP JUMP JUMPDEST PUSH1 0x0 PUSH1 0x8 DUP4 MUL PUSH3 0x233 PUSH32 0xFFFFFFFFFFFFFFFFFFFFFFFFFFFFFFFFFFFFFFFFFFFFFFFFFFFFFFFFFFFFFFFF DUP3 PUSH3 0x1F4 JUMP JUMPDEST PUSH3 0x23F DUP7 DUP4 PUSH3 0x1F4 JUMP JUMPDEST SWAP6 POP DUP1 NOT DUP5 AND SWAP4 POP DUP1 DUP7 AND DUP5 OR SWAP3 POP POP POP SWAP4 SWAP3 POP POP POP JUMP JUMPDEST PUSH1 0x0 DUP2 SWAP1 POP SWAP2 SWAP1 POP JUMP JUMPDEST PUSH1 0x0 DUP2 SWAP1 POP SWAP2 SWAP1 POP JUMP JUMPDEST PUSH1 0x0 PUSH3 0x28C PUSH3 0x286 PUSH3 0x280 DUP5 PUSH3 0x257 JUMP JUMPDEST PUSH3 0x261 JUMP JUMPDEST PUSH3 0x257 JUMP JUMPDEST SWAP1 POP SWAP2 SWAP1 POP JUMP JUMPDEST PUSH1 0x0 DUP2 SWAP1 POP SWAP2 SWAP1 POP JUMP JUMPDEST PUSH3 0x2A8 DUP4 PUSH3 0x26B JUMP JUMPDEST PUSH3 0x2C0 PUSH3 0x2B7 DUP3 PUSH3 0x293 JUMP JUMPDEST DUP5 DUP5 SLOAD PUSH3 0x201 JUMP JUMPDEST DUP3 SSTORE POP POP POP POP JUMP JUMPDEST PUSH1 0x0 SWAP1 JUMP JUMPDEST PUSH3 0x2D7 PUSH3 0x2C8 JUMP JUMPDEST PUSH3 0x2E4 DUP2 DUP5 DUP5 PUSH3 0x29D JUMP JUMPDEST POP POP POP JUMP JUMPDEST JUMPDEST DUP2 DUP2 LT ISZERO PUSH3 0x30C JUMPI PUSH3 0x300 PUSH1 0x0 DUP3 PUSH3 0x2CD JUMP JUMPDEST PUSH1 0x1 DUP2 ADD SWAP1 POP PUSH3 0x2EA JUMP JUMPDEST POP POP JUMP JUMPDEST PUSH1 0x1F DUP3 GT ISZERO PUSH3 0x35B JUMPI PUSH3 0x325 DUP2 PUSH3 0x1CF JUMP JUMPDEST PUSH3 0x330 DUP5 PUSH3 0x1E4 JUMP JUMPDEST DUP2 ADD PUSH1 0x20 DUP6 LT ISZERO PUSH3 0x340 JUMPI DUP2 SWAP1 POP JUMPDEST PUSH3 0x358 PUSH3 0x34F DUP6 PUSH3 0x1E4 JUMP JUMPDEST DUP4 ADD DUP3 PUSH3 0x2E9 JUMP JUMPDEST POP POP JUMPDEST POP POP POP JUMP JUMPDEST PUSH1 0x0 DUP3 DUP3 SHR SWAP1 POP SWAP3 SWAP2 POP POP JUMP JUMPDEST PUSH1 0x0 PUSH3 0x380 PUSH1 0x0 NOT DUP5 PUSH1 0x8 MUL PUSH3 0x360 JUMP JUMPDEST NOT DUP1 DUP4 AND SWAP2 POP POP SWAP3 SWAP2 POP POP JUMP JUMPDEST PUSH1 0x0 PUSH3 0x39B DUP4 DUP4 PUSH3 0x36D JUMP JUMPDEST SWAP2 POP DUP3 PUSH1 0x2 MUL DUP3 OR SWAP1 POP SWAP3 SWAP2 POP POP JUMP JUMPDEST PUSH3 0x3B6 DUP3 PUSH3 0x131 JUMP JUMPDEST PUSH8 0xFFFFFFFFFFFFFFFF DUP2 GT ISZERO PUSH3 0x3D2 JUMPI PUSH3 0x3D1 PUSH3 0x13C JUMP JUMPDEST JUMPDEST PUSH3 0x3DE DUP3 SLOAD PUSH3 0x19A JUMP JUMPDEST PUSH3 0x3EB DUP3 DUP3 DUP6 PUSH3 0x310 JUMP JUMPDEST PUSH1 0x0 PUSH1 0x20 SWAP1 POP PUSH1 0x1F DUP4 GT PUSH1 0x1 DUP2 EQ PUSH3 0x423 JUMPI PUSH1 0x0 DUP5 ISZERO PUSH3 0x40E JUMPI DUP3 DUP8 ADD MLOAD SWAP1 POP JUMPDEST PUSH3 0x41A DUP6 DUP3 PUSH3 0x38D JUMP JUMPDEST DUP7 SSTORE POP PUSH3 0x48A JUMP JUMPDEST PUSH1 0x1F NOT DUP5 AND PUSH3 0x433 DUP7 PUSH3 0x1CF JUMP JUMPDEST PUSH1 0x0 JUMPDEST DUP3 DUP2 LT ISZERO PUSH3 0x45D JUMPI DUP5 DUP10 ADD MLOAD DUP3 SSTORE PUSH1 0x1 DUP3 ADD SWAP2 POP PUSH1 0x20 DUP6 ADD SWAP5 POP PUSH1 0x20 DUP2 ADD SWAP1 POP PUSH3 0x436 JUMP JUMPDEST DUP7 DUP4 LT ISZERO PUSH3 0x47D JUMPI DUP5 DUP10 ADD MLOAD PUSH3 0x479 PUSH1 0x1F DUP10 AND DUP3 PUSH3 0x36D JUMP JUMPDEST DUP4 SSTORE POP JUMPDEST PUSH1 0x1 PUSH1 0x2 DUP9 MUL ADD DUP9 SSTORE POP POP POP JUMPDEST POP POP POP POP POP POP JUMP JUMPDEST PUSH2 0x20E5 DUP1 PUSH3 0x4A2 PUSH1 0x0 CODECOPY PUSH1 0x0 RETURN INVALID PUSH1 0x80 PUSH1 0x40 MSTORE PUSH1 0x4 CALLDATASIZE LT PUSH2 0x12A JUMPI PUSH1 0x0 CALLDATALOAD PUSH1 0xE0 SHR DUP1 PUSH4 0x6352211E GT PUSH2 0xAB JUMPI DUP1 PUSH4 0x95D89B41 GT PUSH2 0x6F JUMPI DUP1 PUSH4 0x95D89B41 EQ PUSH2 0x3CF JUMPI DUP1 PUSH4 0xA0712D68 EQ PUSH2 0x3FA JUMPI DUP1 PUSH4 0xA22CB465 EQ PUSH2 0x416 JUMPI DUP1 PUSH4 0xB88D4FDE EQ PUSH2 0x43F JUMPI DUP1 PUSH4 0xC87B56DD EQ PUSH2 0x45B JUMPI DUP1 PUSH4 0xE985E9C5 EQ PUSH2 0x498 JUMPI PUSH2 0x12A JUMP JUMPDEST DUP1 PUSH4 0x6352211E EQ PUSH2 0x2D4 JUMPI DUP1 PUSH4 0x6C0360EB EQ PUSH2 0x311 JUMPI DUP1 PUSH4 0x70A08231 EQ PUSH2 0x33C JUMPI DUP1 PUSH4 0x8DA5CB5B EQ PUSH2 0x379 JUMPI DUP1 PUSH4 0x95363731 EQ PUSH2 0x3A4 JUMPI PUSH2 0x12A JUMP JUMPDEST DUP1 PUSH4 0x17D7DE7C GT PUSH2 0xF2 JUMPI DUP1 PUSH4 0x17D7DE7C EQ PUSH2 0x21B JUMPI DUP1 PUSH4 0x18160DDD EQ PUSH2 0x246 JUMPI DUP1 PUSH4 0x23B872DD EQ PUSH2 0x271 JUMPI DUP1 PUSH4 0x32CB6B0C EQ PUSH2 0x28D JUMPI DUP1 PUSH4 0x42842E0E EQ PUSH2 0x2B8 JUMPI PUSH2 0x12A JUMP JUMPDEST DUP1 PUSH4 0x1FFC9A7 EQ PUSH2 0x12F JUMPI DUP1 PUSH4 0x6FDDE03 EQ PUSH2 0x16C JUMPI DUP1 PUSH4 0x81812FC EQ PUSH2 0x197 JUMPI DUP1 PUSH4 0x95EA7B3 EQ PUSH2 0x1D4 JUMPI DUP1 PUSH4 0x15070401 EQ PUSH2 0x1F0 JUMPI JUMPDEST PUSH1 0x0 DUP1 REVERT JUMPDEST CALLVALUE DUP1 ISZERO PUSH2 0x13B JUMPI PUSH1 0x0 DUP1 REVERT JUMPDEST POP PUSH2 0x156 PUSH1 0x4 DUP1 CALLDATASIZE SUB DUP2 ADD SWAP1 PUSH2 0x151 SWAP2 SWAP1 PUSH2 0x185D JUMP JUMPDEST PUSH2 0x4D5 JUMP JUMPDEST PUSH1 0x40 MLOAD PUSH2 0x163 SWAP2 SWAP1 PUSH2 0x18A5 JUMP JUMPDEST PUSH1 0x40 MLOAD DUP1 SWAP2 SUB SWAP1 RETURN JUMPDEST CALLVALUE DUP1 ISZERO PUSH2 0x178 JUMPI PUSH1 0x0 DUP1 REVERT JUMPDEST POP PUSH2 0x181 PUSH2 0x567 JUMP JUMPDEST PUSH1 0x40 MLOAD PUSH2 0x18E SWAP2 SWAP1 PUSH2 0x1950 JUMP JUMPDEST PUSH1 0x40 MLOAD DUP1 SWAP2 SUB SWAP1 RETURN JUMPDEST CALLVALUE DUP1 ISZERO PUSH2 0x1A3 JUMPI PUSH1 0x0 DUP1 REVERT JUMPDEST POP PUSH2 0x1BE PUSH1 0x4 DUP1 CALLDATASIZE SUB DUP2 ADD SWAP1 PUSH2 0x1B9 SWAP2 SWAP1 PUSH2 0x19A8 JUMP JUMPDEST PUSH2 0x5F9 JUMP JUMPDEST PUSH1 0x40 MLOAD PUSH2 0x1CB SWAP2 SWAP1 PUSH2 0x1A16 JUMP JUMPDEST PUSH1 0x40 MLOAD DUP1 SWAP2 SUB SWAP1 RETURN JUMPDEST PUSH2 0x1EE PUSH1 0x4 DUP1 CALLDATASIZE SUB DUP2 ADD SWAP1 PUSH2 0x1E9 SWAP2 SWAP1 PUSH2 0x1A5D JUMP JUMPDEST PUSH2 0x678 JUMP JUMPDEST STOP JUMPDEST CALLVALUE DUP1 ISZERO PUSH2 0x1FC JUMPI PUSH1 0x0 DUP1 REVERT JUMPDEST POP PUSH2 0x205 PUSH2 0x7BC JUMP JUMPDEST PUSH1 0x40 MLOAD PUSH2 0x212 SWAP2 SWAP1 PUSH2 0x1950 JUMP JUMPDEST PUSH1 0x40 MLOAD DUP1 SWAP2 SUB SWAP1 RETURN JUMPDEST CALLVALUE DUP1 ISZERO PUSH2 0x227 JUMPI PUSH1 0x0 DUP1 REVERT JUMPDEST POP PUSH2 0x230 PUSH2 0x7CB JUMP JUMPDEST PUSH1 0x40 MLOAD PUSH2 0x23D SWAP2 SWAP1 PUSH2 0x1950 JUMP JUMPDEST PUSH1 0x40 MLOAD DUP1 SWAP2 SUB SWAP1 RETURN JUMPDEST CALLVALUE DUP1 ISZERO PUSH2 0x252 JUMPI PUSH1 0x0 DUP1 REVERT JUMPDEST POP PUSH2 0x25B PUSH2 0x7DA JUMP JUMPDEST PUSH1 0x40 MLOAD PUSH2 0x268 SWAP2 SWAP1 PUSH2 0x1AAC JUMP JUMPDEST PUSH1 0x40 MLOAD DUP1 SWAP2 SUB SWAP1 RETURN JUMPDEST PUSH2 0x28B PUSH1 0x4 DUP1 CALLDATASIZE SUB DUP2 ADD SWAP1 PUSH2 0x286 SWAP2 SWAP1 PUSH2 0x1AC7 JUMP JUMPDEST PUSH2 0x7F1 JUMP JUMPDEST STOP JUMPDEST CALLVALUE DUP1 ISZERO PUSH2 0x299 JUMPI PUSH1 0x0 DUP1 REVERT JUMPDEST POP PUSH2 0x2A2 PUSH2 0xB13 JUMP JUMPDEST PUSH1 0x40 MLOAD PUSH2 0x2AF SWAP2 SWAP1 PUSH2 0x1AAC JUMP JUMPDEST PUSH1 0x40 MLOAD DUP1 SWAP2 SUB SWAP1 RETURN JUMPDEST PUSH2 0x2D2 PUSH1 0x4 DUP1 CALLDATASIZE SUB DUP2 ADD SWAP1 PUSH2 0x2CD SWAP2 SWAP1 PUSH2 0x1AC7 JUMP JUMPDEST PUSH2 0xB18 JUMP JUMPDEST STOP JUMPDEST CALLVALUE DUP1 ISZERO PUSH2 0x2E0 JUMPI PUSH1 0x0 DUP1 REVERT JUMPDEST POP PUSH2 0x2FB PUSH1 0x4 DUP1 CALLDATASIZE SUB DUP2 ADD SWAP1 PUSH2 0x2F6 SWAP2 SWAP1 PUSH2 0x19A8 JUMP JUMPDEST PUSH2 0xB38 JUMP JUMPDEST PUSH1 0x40 MLOAD PUSH2 0x308 SWAP2 SWAP1 PUSH2 0x1A16 JUMP JUMPDEST PUSH1 0x40 MLOAD DUP1 SWAP2 SUB SWAP1 RETURN JUMPDEST CALLVALUE DUP1 ISZERO PUSH2 0x31D JUMPI PUSH1 0x0 DUP1 REVERT JUMPDEST POP PUSH2 0x326 PUSH2 0xB4A JUMP JUMPDEST PUSH1 0x40 MLOAD PUSH2 0x333 SWAP2 SWAP1 PUSH2 0x1950 JUMP JUMPDEST PUSH1 0x40 MLOAD DUP1 SWAP2 SUB SWAP1 RETURN JUMPDEST CALLVALUE DUP1 ISZERO PUSH2 0x348 JUMPI PUSH1 0x0 DUP1 REVERT JUMPDEST POP PUSH2 0x363 PUSH1 0x4 DUP1 CALLDATASIZE SUB DUP2 ADD SWAP1 PUSH2 0x35E SWAP2 SWAP1 PUSH2 0x1B1A JUMP JUMPDEST PUSH2 0xBD8 JUMP JUMPDEST PUSH1 0x40 MLOAD PUSH2 0x370 SWAP2 SWAP1 PUSH2 0x1AAC JUMP JUMPDEST PUSH1 0x40 MLOAD DUP1 SWAP2 SUB SWAP1 RETURN JUMPDEST CALLVALUE DUP1 ISZERO PUSH2 0x385 JUMPI PUSH1 0x0 DUP1 REVERT JUMPDEST POP PUSH2 0x38E PUSH2 0xC90 JUMP JUMPDEST PUSH1 0x40 MLOAD PUSH2 0x39B SWAP2 SWAP1 PUSH2 0x1A16 JUMP JUMPDEST PUSH1 0x40 MLOAD DUP1 SWAP2 SUB SWAP1 RETURN JUMPDEST CALLVALUE DUP1 ISZERO PUSH2 0x3B0 JUMPI PUSH1 0x0 DUP1 REVERT JUMPDEST POP PUSH2 0x3B9 PUSH2 0xCB6 JUMP JUMPDEST PUSH1 0x40 MLOAD PUSH2 0x3C6 SWAP2 SWAP1 PUSH2 0x1950 JUMP JUMPDEST PUSH1 0x40 MLOAD DUP1 SWAP2 SUB SWAP1 RETURN JUMPDEST CALLVALUE DUP1 ISZERO PUSH2 0x3DB JUMPI PUSH1 0x0 DUP1 REVERT JUMPDEST POP PUSH2 0x3E4 PUSH2 0xCF3 JUMP JUMPDEST PUSH1 0x40 MLOAD PUSH2 0x3F1 SWAP2 SWAP1 PUSH2 0x1950 JUMP JUMPDEST PUSH1 0x40 MLOAD DUP1 SWAP2 SUB SWAP1 RETURN JUMPDEST PUSH2 0x414 PUSH1 0x4 DUP1 CALLDATASIZE SUB DUP2 ADD SWAP1 PUSH2 0x40F SWAP2 SWAP1 PUSH2 0x19A8 JUMP JUMPDEST PUSH2 0xD85 JUMP JUMPDEST STOP JUMPDEST CALLVALUE DUP1 ISZERO PUSH2 0x422 JUMPI PUSH1 0x0 DUP1 REVERT JUMPDEST POP PUSH2 0x43D PUSH1 0x4 DUP1 CALLDATASIZE SUB DUP2 ADD SWAP1 PUSH2 0x438 SWAP2 SWAP1 PUSH2 0x1B73 JUMP JUMPDEST PUSH2 0xE7E JUMP JUMPDEST STOP JUMPDEST PUSH2 0x459 PUSH1 0x4 DUP1 CALLDATASIZE SUB DUP2 ADD SWAP1 PUSH2 0x454 SWAP2 SWAP1 PUSH2 0x1CE8 JUMP JUMPDEST PUSH2 0xF89 JUMP JUMPDEST STOP JUMPDEST CALLVALUE DUP1 ISZERO PUSH2 0x467 JUMPI PUSH1 0x0 DUP1 REVERT JUMPDEST POP PUSH2 0x482 PUSH1 0x4 DUP1 CALLDATASIZE SUB DUP2 ADD SWAP1 PUSH2 0x47D SWAP2 SWAP1 PUSH2 0x19A8 JUMP JUMPDEST PUSH2 0xFFC JUMP JUMPDEST PUSH1 0x40 MLOAD PUSH2 0x48F SWAP2 SWAP1 PUSH2 0x1950 JUMP JUMPDEST PUSH1 0x40 MLOAD DUP1 SWAP2 SUB SWAP1 RETURN JUMPDEST CALLVALUE DUP1 ISZERO PUSH2 0x4A4 JUMPI PUSH1 0x0 DUP1 REVERT JUMPDEST POP PUSH2 0x4BF PUSH1 0x4 DUP1 CALLDATASIZE SUB DUP2 ADD SWAP1 PUSH2 0x4BA SWAP2 SWAP1 PUSH2 0x1D6B JUMP JUMPDEST PUSH2 0x109A JUMP JUMPDEST PUSH1 0x40 MLOAD PUSH2 0x4CC SWAP2 SWAP1 PUSH2 0x18A5 JUMP JUMPDEST PUSH1 0x40 MLOAD DUP1 SWAP2 SUB SWAP1 RETURN JUMPDEST PUSH1 0x0 PUSH4 0x1FFC9A7 PUSH1 0xE0 SHL DUP3 PUSH28 0xFFFFFFFFFFFFFFFFFFFFFFFFFFFFFFFFFFFFFFFFFFFFFFFFFFFFFFFF NOT AND EQ DUP1 PUSH2 0x530 JUMPI POP PUSH4 0x80AC58CD PUSH1 0xE0 SHL DUP3 PUSH28 0xFFFFFFFFFFFFFFFFFFFFFFFFFFFFFFFFFFFFFFFFFFFFFFFFFFFFFFFF NOT AND EQ JUMPDEST DUP1 PUSH2 0x560 JUMPI POP PUSH4 0x5B5E139F PUSH1 0xE0 SHL DUP3 PUSH28 0xFFFFFFFFFFFFFFFFFFFFFFFFFFFFFFFFFFFFFFFFFFFFFFFFFFFFFFFF NOT AND EQ JUMPDEST SWAP1 POP SWAP2 SWAP1 POP JUMP JUMPDEST PUSH1 0x60 PUSH1 0x2 DUP1 SLOAD PUSH2 0x576 SWAP1 PUSH2 0x1DDA JUMP JUMPDEST DUP1 PUSH1 0x1F ADD PUSH1 0x20 DUP1 SWAP2 DIV MUL PUSH1 0x20 ADD PUSH1 0x40 MLOAD SWAP1 DUP2 ADD PUSH1 0x40 MSTORE DUP1 SWAP3 SWAP2 SWAP1 DUP2 DUP2 MSTORE PUSH1 0x20 ADD DUP3 DUP1 SLOAD PUSH2 0x5A2 SWAP1 PUSH2 0x1DDA JUMP JUMPDEST DUP1 ISZERO PUSH2 0x5EF JUMPI DUP1 PUSH1 0x1F LT PUSH2 0x5C4 JUMPI PUSH2 0x100 DUP1 DUP4 SLOAD DIV MUL DUP4 MSTORE SWAP2 PUSH1 0x20 ADD SWAP2 PUSH2 0x5EF JUMP JUMPDEST DUP3 ADD SWAP2 SWAP1 PUSH1 0x0 MSTORE PUSH1 0x20 PUSH1 0x0 KECCAK256 SWAP1 JUMPDEST DUP2 SLOAD DUP2 MSTORE SWAP1 PUSH1 0x1 ADD SWAP1 PUSH1 0x20 ADD DUP1 DUP4 GT PUSH2 0x5D2 JUMPI DUP3 SWAP1 SUB PUSH1 0x1F AND DUP3 ADD SWAP2 JUMPDEST POP POP POP POP POP SWAP1 POP SWAP1 JUMP JUMPDEST PUSH1 0x0 PUSH2 0x604 DUP3 PUSH2 0x112E JUMP JUMPDEST PUSH2 0x63A JUMPI PUSH1 0x40 MLOAD PUSH32 0xCF4700E400000000000000000000000000000000000000000000000000000000 DUP2 MSTORE PUSH1 0x4 ADD PUSH1 0x40 MLOAD DUP1 SWAP2 SUB SWAP1 REVERT JUMPDEST PUSH1 0x6 PUSH1 0x0 DUP4 DUP2 MSTORE PUSH1 0x20 ADD SWAP1 DUP2 MSTORE PUSH1 0x20 ADD PUSH1 0x0 KECCAK256 PUSH1 0x0 ADD PUSH1 0x0 SWAP1 SLOAD SWAP1 PUSH2 0x100 EXP SWAP1 DIV PUSH20 0xFFFFFFFFFFFFFFFFFFFFFFFFFFFFFFFFFFFFFFFF AND SWAP1 POP SWAP2 SWAP1 POP JUMP JUMPDEST PUSH1 0x0 PUSH2 0x683 DUP3 PUSH2 0xB38 JUMP JUMPDEST SWAP1 POP DUP1 PUSH20 0xFFFFFFFFFFFFFFFFFFFFFFFFFFFFFFFFFFFFFFFF AND PUSH2 0x6A4 PUSH2 0x118D JUMP JUMPDEST PUSH20 0xFFFFFFFFFFFFFFFFFFFFFFFFFFFFFFFFFFFFFFFF AND EQ PUSH2 0x707 JUMPI PUSH2 0x6D0 DUP2 PUSH2 0x6CB PUSH2 0x118D JUMP JUMPDEST PUSH2 0x109A JUMP JUMPDEST PUSH2 0x706 JUMPI PUSH1 0x40 MLOAD PUSH32 0xCFB3B94200000000000000000000000000000000000000000000000000000000 DUP2 MSTORE PUSH1 0x4 ADD PUSH1 0x40 MLOAD DUP1 SWAP2 SUB SWAP1 REVERT JUMPDEST JUMPDEST DUP3 PUSH1 0x6 PUSH1 0x0 DUP5 DUP2 MSTORE PUSH1 0x20 ADD SWAP1 DUP2 MSTORE PUSH1 0x20 ADD PUSH1 0x0 KECCAK256 PUSH1 0x0 ADD PUSH1 0x0 PUSH2 0x100 EXP DUP2 SLOAD DUP2 PUSH20 0xFFFFFFFFFFFFFFFFFFFFFFFFFFFFFFFFFFFFFFFF MUL NOT AND SWAP1 DUP4 PUSH20 0xFFFFFFFFFFFFFFFFFFFFFFFFFFFFFFFFFFFFFFFF AND MUL OR SWAP1 SSTORE POP DUP2 DUP4 PUSH20 0xFFFFFFFFFFFFFFFFFFFFFFFFFFFFFFFFFFFFFFFF AND DUP3 PUSH20 0xFFFFFFFFFFFFFFFFFFFFFFFFFFFFFFFFFFFFFFFF AND PUSH32 0x8C5BE1E5EBEC7D5BD14F71427D1E84F3DD0314C0F7B2291E5B200AC8C7C3B925 PUSH1 0x40 MLOAD PUSH1 0x40 MLOAD DUP1 SWAP2 SUB SWAP1 LOG4 POP POP POP JUMP JUMPDEST PUSH1 0x60 PUSH2 0x7C6 PUSH2 0xCF3 JUMP JUMPDEST SWAP1 POP SWAP1 JUMP JUMPDEST PUSH1 0x60 PUSH2 0x7D5 PUSH2 0x567 JUMP JUMPDEST SWAP1 POP SWAP1 JUMP JUMPDEST PUSH1 0x0 PUSH2 0x7E4 PUSH2 0x1195 JUMP JUMPDEST PUSH1 0x1 SLOAD PUSH1 0x0 SLOAD SUB SUB SWAP1 POP SWAP1 JUMP JUMPDEST PUSH1 0x0 PUSH2 0x7FC DUP3 PUSH2 0x119A JUMP JUMPDEST SWAP1 POP DUP4 PUSH20 0xFFFFFFFFFFFFFFFFFFFFFFFFFFFFFFFFFFFFFFFF AND DUP2 PUSH20 0xFFFFFFFFFFFFFFFFFFFFFFFFFFFFFFFFFFFFFFFF AND EQ PUSH2 0x863 JUMPI PUSH1 0x40 MLOAD PUSH32 0xA114810000000000000000000000000000000000000000000000000000000000 DUP2 MSTORE PUSH1 0x4 ADD PUSH1 0x40 MLOAD DUP1 SWAP2 SUB SWAP1 REVERT JUMPDEST PUSH1 0x0 DUP1 PUSH2 0x86F DUP5 PUSH2 0x1266 JUMP JUMPDEST SWAP2 POP SWAP2 POP PUSH2 0x885 DUP2 DUP8 PUSH2 0x880 PUSH2 0x118D JUMP JUMPDEST PUSH2 0x128D JUMP JUMPDEST PUSH2 0x8D1 JUMPI PUSH2 0x89A DUP7 PUSH2 0x895 PUSH2 0x118D JUMP JUMPDEST PUSH2 0x109A JUMP JUMPDEST PUSH2 0x8D0 JUMPI PUSH1 0x40 MLOAD PUSH32 0x59C896BE00000000000000000000000000000000000000000000000000000000 DUP2 MSTORE PUSH1 0x4 ADD PUSH1 0x40 MLOAD DUP1 SWAP2 SUB SWAP1 REVERT JUMPDEST JUMPDEST PUSH1 0x0 PUSH20 0xFFFFFFFFFFFFFFFFFFFFFFFFFFFFFFFFFFFFFFFF AND DUP6 PUSH20 0xFFFFFFFFFFFFFFFFFFFFFFFFFFFFFFFFFFFFFFFF AND SUB PUSH2 0x937 JUMPI PUSH1 0x40 MLOAD PUSH32 0xEA553B3400000000000000000000000000000000000000000000000000000000 DUP2 MSTORE PUSH1 0x4 ADD PUSH1 0x40 MLOAD DUP1 SWAP2 SUB SWAP1 REVERT JUMPDEST PUSH2 0x944 DUP7 DUP7 DUP7 PUSH1 0x1 PUSH2 0x12D1 JUMP JUMPDEST DUP1 ISZERO PUSH2 0x94F JUMPI PUSH1 0x0 DUP3 SSTORE JUMPDEST PUSH1 0x5 PUSH1 0x0 DUP8 PUSH20 0xFFFFFFFFFFFFFFFFFFFFFFFFFFFFFFFFFFFFFFFF AND PUSH20 0xFFFFFFFFFFFFFFFFFFFFFFFFFFFFFFFFFFFFFFFF AND DUP2 MSTORE PUSH1 0x20 ADD SWAP1 DUP2 MSTORE PUSH1 0x20 ADD PUSH1 0x0 KECCAK256 PUSH1 0x0 DUP2 SLOAD PUSH1 0x1 SWAP1 SUB SWAP2 SWAP1 POP DUP2 SWAP1 SSTORE POP PUSH1 0x5 PUSH1 0x0 DUP7 PUSH20 0xFFFFFFFFFFFFFFFFFFFFFFFFFFFFFFFFFFFFFFFF AND PUSH20 0xFFFFFFFFFFFFFFFFFFFFFFFFFFFFFFFFFFFFFFFF AND DUP2 MSTORE PUSH1 0x20 ADD SWAP1 DUP2 MSTORE PUSH1 0x20 ADD PUSH1 0x0 KECCAK256 PUSH1 0x0 DUP2 SLOAD PUSH1 0x1 ADD SWAP2 SWAP1 POP DUP2 SWAP1 SSTORE POP PUSH2 0xA1D DUP6 PUSH2 0x9F9 DUP9 DUP9 DUP8 PUSH2 0x12D7 JUMP JUMPDEST PUSH29 0x200000000000000000000000000000000000000000000000000000000 OR PUSH2 0x12FF JUMP JUMPDEST PUSH1 0x4 PUSH1 0x0 DUP7 DUP2 MSTORE PUSH1 0x20 ADD SWAP1 DUP2 MSTORE PUSH1 0x20 ADD PUSH1 0x0 KECCAK256 DUP2 SWAP1 SSTORE POP PUSH1 0x0 PUSH29 0x200000000000000000000000000000000000000000000000000000000 DUP5 AND SUB PUSH2 0xAA3 JUMPI PUSH1 0x0 PUSH1 0x1 DUP6 ADD SWAP1 POP PUSH1 0x0 PUSH1 0x4 PUSH1 0x0 DUP4 DUP2 MSTORE PUSH1 0x20 ADD SWAP1 DUP2 MSTORE PUSH1 0x20 ADD PUSH1 0x0 KECCAK256 SLOAD SUB PUSH2 0xAA1 JUMPI PUSH1 0x0 SLOAD DUP2 EQ PUSH2 0xAA0 JUMPI DUP4 PUSH1 0x4 PUSH1 0x0 DUP4 DUP2 MSTORE PUSH1 0x20 ADD SWAP1 DUP2 MSTORE PUSH1 0x20 ADD PUSH1 0x0 KECCAK256 DUP2 SWAP1 SSTORE POP JUMPDEST JUMPDEST POP JUMPDEST DUP4 DUP6 PUSH20 0xFFFFFFFFFFFFFFFFFFFFFFFFFFFFFFFFFFFFFFFF AND DUP8 PUSH20 0xFFFFFFFFFFFFFFFFFFFFFFFFFFFFFFFFFFFFFFFF AND PUSH32 0xDDF252AD1BE2C89B69C2B068FC378DAA952BA7F163C4A11628F55A4DF523B3EF PUSH1 0x40 MLOAD PUSH1 0x40 MLOAD DUP1 SWAP2 SUB SWAP1 LOG4 PUSH2 0xB0B DUP7 DUP7 DUP7 PUSH1 0x1 PUSH2 0x132A JUMP JUMPDEST POP POP POP POP POP POP JUMP JUMPDEST PUSH1 0x5 DUP2 JUMP JUMPDEST PUSH2 0xB33 DUP4 DUP4 DUP4 PUSH1 0x40 MLOAD DUP1 PUSH1 0x20 ADD PUSH1 0x40 MSTORE DUP1 PUSH1 0x0 DUP2 MSTORE POP PUSH2 0xF89 JUMP JUMPDEST POP POP POP JUMP JUMPDEST PUSH1 0x0 PUSH2 0xB43 DUP3 PUSH2 0x119A JUMP JUMPDEST SWAP1 POP SWAP2 SWAP1 POP JUMP JUMPDEST PUSH1 0x8 DUP1 SLOAD PUSH2 0xB57 SWAP1 PUSH2 0x1DDA JUMP JUMPDEST DUP1 PUSH1 0x1F ADD PUSH1 0x20 DUP1 SWAP2 DIV MUL PUSH1 0x20 ADD PUSH1 0x40 MLOAD SWAP1 DUP2 ADD PUSH1 0x40 MSTORE DUP1 SWAP3 SWAP2 SWAP1 DUP2 DUP2 MSTORE PUSH1 0x20 ADD DUP3 DUP1 SLOAD PUSH2 0xB83 SWAP1 PUSH2 0x1DDA JUMP JUMPDEST DUP1 ISZERO PUSH2 0xBD0 JUMPI DUP1 PUSH1 0x1F LT PUSH2 0xBA5 JUMPI PUSH2 0x100 DUP1 DUP4 SLOAD DIV MUL DUP4 MSTORE SWAP2 PUSH1 0x20 ADD SWAP2 PUSH2 0xBD0 JUMP JUMPDEST DUP3 ADD SWAP2 SWAP1 PUSH1 0x0 MSTORE PUSH1 0x20 PUSH1 0x0 KECCAK256 SWAP1 JUMPDEST DUP2 SLOAD DUP2 MSTORE SWAP1 PUSH1 0x1 ADD SWAP1 PUSH1 0x20 ADD DUP1 DUP4 GT PUSH2 0xBB3 JUMPI DUP3 SWAP1 SUB PUSH1 0x1F AND DUP3 ADD SWAP2 JUMPDEST POP POP POP POP POP DUP2 JUMP JUMPDEST PUSH1 0x0 DUP1 PUSH20 0xFFFFFFFFFFFFFFFFFFFFFFFFFFFFFFFFFFFFFFFF AND DUP3 PUSH20 0xFFFFFFFFFFFFFFFFFFFFFFFFFFFFFFFFFFFFFFFF AND SUB PUSH2 0xC3F JUMPI PUSH1 0x40 MLOAD PUSH32 0x8F4EB60400000000000000000000000000000000000000000000000000000000 DUP2 MSTORE PUSH1 0x4 ADD PUSH1 0x40 MLOAD DUP1 SWAP2 SUB SWAP1 REVERT JUMPDEST PUSH8 0xFFFFFFFFFFFFFFFF PUSH1 0x5 PUSH1 0x0 DUP5 PUSH20 0xFFFFFFFFFFFFFFFFFFFFFFFFFFFFFFFFFFFFFFFF AND PUSH20 0xFFFFFFFFFFFFFFFFFFFFFFFFFFFFFFFFFFFFFFFF AND DUP2 MSTORE PUSH1 0x20 ADD SWAP1 DUP2 MSTORE PUSH1 0x20 ADD PUSH1 0x0 KECCAK256 SLOAD AND SWAP1 POP SWAP2 SWAP1 POP JUMP JUMPDEST PUSH1 0x9 PUSH1 0x0 SWAP1 SLOAD SWAP1 PUSH2 0x100 EXP SWAP1 DIV PUSH20 0xFFFFFFFFFFFFFFFFFFFFFFFFFFFFFFFFFFFFFFFF AND DUP2 JUMP JUMPDEST PUSH1 0x60 PUSH1 0x40 MLOAD DUP1 PUSH1 0x40 ADD PUSH1 0x40 MSTORE DUP1 PUSH1 0xE DUP2 MSTORE PUSH1 0x20 ADD PUSH32 0x73756B756E61206A756A75747375000000000000000000000000000000000000 DUP2 MSTORE POP SWAP1 POP SWAP1 JUMP JUMPDEST PUSH1 0x60 PUSH1 0x3 DUP1 SLOAD PUSH2 0xD02 SWAP1 PUSH2 0x1DDA JUMP JUMPDEST DUP1 PUSH1 0x1F ADD PUSH1 0x20 DUP1 SWAP2 DIV MUL PUSH1 0x20 ADD PUSH1 0x40 MLOAD SWAP1 DUP2 ADD PUSH1 0x40 MSTORE DUP1 SWAP3 SWAP2 SWAP1 DUP2 DUP2 MSTORE PUSH1 0x20 ADD DUP3 DUP1 SLOAD PUSH2 0xD2E SWAP1 PUSH2 0x1DDA JUMP JUMPDEST DUP1 ISZERO PUSH2 0xD7B JUMPI DUP1 PUSH1 0x1F LT PUSH2 0xD50 JUMPI PUSH2 0x100 DUP1 DUP4 SLOAD DIV MUL DUP4 MSTORE SWAP2 PUSH1 0x20 ADD SWAP2 PUSH2 0xD7B JUMP JUMPDEST DUP3 ADD SWAP2 SWAP1 PUSH1 0x0 MSTORE PUSH1 0x20 PUSH1 0x0 KECCAK256 SWAP1 JUMPDEST DUP2 SLOAD DUP2 MSTORE SWAP1 PUSH1 0x1 ADD SWAP1 PUSH1 0x20 ADD DUP1 DUP4 GT PUSH2 0xD5E JUMPI DUP3 SWAP1 SUB PUSH1 0x1F AND DUP3 ADD SWAP2 JUMPDEST POP POP POP POP POP SWAP1 POP SWAP1 JUMP JUMPDEST PUSH1 0x9 PUSH1 0x0 SWAP1 SLOAD SWAP1 PUSH2 0x100 EXP SWAP1 DIV PUSH20 0xFFFFFFFFFFFFFFFFFFFFFFFFFFFFFFFFFFFFFFFF AND PUSH20 0xFFFFFFFFFFFFFFFFFFFFFFFFFFFFFFFFFFFFFFFF AND CALLER PUSH20 0xFFFFFFFFFFFFFFFFFFFFFFFFFFFFFFFFFFFFFFFF AND EQ PUSH2 0xE15 JUMPI PUSH1 0x40 MLOAD PUSH32 0x8C379A000000000000000000000000000000000000000000000000000000000 DUP2 MSTORE PUSH1 0x4 ADD PUSH2 0xE0C SWAP1 PUSH2 0x1E7D JUMP JUMPDEST PUSH1 0x40 MLOAD DUP1 SWAP2 SUB SWAP1 REVERT JUMPDEST PUSH1 0x0 DUP2 PUSH2 0xE20 PUSH2 0x7DA JUMP JUMPDEST PUSH2 0xE2A SWAP2 SWAP1 PUSH2 0x1ECC JUMP JUMPDEST SWAP1 POP PUSH1 0x5 DUP2 GT ISZERO PUSH2 0xE70 JUMPI PUSH1 0x40 MLOAD PUSH32 0x11A8EC5700000000000000000000000000000000000000000000000000000000 DUP2 MSTORE PUSH1 0x4 ADD PUSH2 0xE67 SWAP1 PUSH2 0x1F4C JUMP JUMPDEST PUSH1 0x40 MLOAD DUP1 SWAP2 SUB SWAP1 REVERT JUMPDEST PUSH2 0xE7A CALLER DUP4 PUSH2 0x1330 JUMP JUMPDEST POP POP JUMP JUMPDEST DUP1 PUSH1 0x7 PUSH1 0x0 PUSH2 0xE8B PUSH2 0x118D JUMP JUMPDEST PUSH20 0xFFFFFFFFFFFFFFFFFFFFFFFFFFFFFFFFFFFFFFFF AND PUSH20 0xFFFFFFFFFFFFFFFFFFFFFFFFFFFFFFFFFFFFFFFF AND DUP2 MSTORE PUSH1 0x20 ADD SWAP1 DUP2 MSTORE PUSH1 0x20 ADD PUSH1 0x0 KECCAK256 PUSH1 0x0 DUP5 PUSH20 0xFFFFFFFFFFFFFFFFFFFFFFFFFFFFFFFFFFFFFFFF AND PUSH20 0xFFFFFFFFFFFFFFFFFFFFFFFFFFFFFFFFFFFFFFFF AND DUP2 MSTORE PUSH1 0x20 ADD SWAP1 DUP2 MSTORE PUSH1 0x20 ADD PUSH1 0x0 KECCAK256 PUSH1 0x0 PUSH2 0x100 EXP DUP2 SLOAD DUP2 PUSH1 0xFF MUL NOT AND SWAP1 DUP4 ISZERO ISZERO MUL OR SWAP1 SSTORE POP DUP2 PUSH20 0xFFFFFFFFFFFFFFFFFFFFFFFFFFFFFFFFFFFFFFFF AND PUSH2 0xF38 PUSH2 0x118D JUMP JUMPDEST PUSH20 0xFFFFFFFFFFFFFFFFFFFFFFFFFFFFFFFFFFFFFFFF AND PUSH32 0x17307EAB39AB6107E8899845AD3D59BD9653F200F220920489CA2B5937696C31 DUP4 PUSH1 0x40 MLOAD PUSH2 0xF7D SWAP2 SWAP1 PUSH2 0x18A5 JUMP JUMPDEST PUSH1 0x40 MLOAD DUP1 SWAP2 SUB SWAP1 LOG3 POP POP JUMP JUMPDEST PUSH2 0xF94 DUP5 DUP5 DUP5 PUSH2 0x7F1 JUMP JUMPDEST PUSH1 0x0 DUP4 PUSH20 0xFFFFFFFFFFFFFFFFFFFFFFFFFFFFFFFFFFFFFFFF AND EXTCODESIZE EQ PUSH2 0xFF6 JUMPI PUSH2 0xFBF DUP5 DUP5 DUP5 DUP5 PUSH2 0x134E JUMP JUMPDEST PUSH2 0xFF5 JUMPI PUSH1 0x40 MLOAD PUSH32 0xD1A57ED600000000000000000000000000000000000000000000000000000000 DUP2 MSTORE PUSH1 0x4 ADD PUSH1 0x40 MLOAD DUP1 SWAP2 SUB SWAP1 REVERT JUMPDEST JUMPDEST POP POP POP POP JUMP JUMPDEST PUSH1 0x60 PUSH2 0x1007 DUP3 PUSH2 0x112E JUMP JUMPDEST PUSH2 0x103D JUMPI PUSH1 0x40 MLOAD PUSH32 0xA14C4B5000000000000000000000000000000000000000000000000000000000 DUP2 MSTORE PUSH1 0x4 ADD PUSH1 0x40 MLOAD DUP1 SWAP2 SUB SWAP1 REVERT JUMPDEST PUSH1 0x0 PUSH2 0x1047 PUSH2 0x149E JUMP JUMPDEST SWAP1 POP PUSH1 0x0 DUP2 MLOAD SUB PUSH2 0x1067 JUMPI PUSH1 0x40 MLOAD DUP1 PUSH1 0x20 ADD PUSH1 0x40 MSTORE DUP1 PUSH1 0x0 DUP2 MSTORE POP PUSH2 0x1092 JUMP JUMPDEST DUP1 PUSH2 0x1071 DUP5 PUSH2 0x1530 JUMP JUMPDEST PUSH1 0x40 MLOAD PUSH1 0x20 ADD PUSH2 0x1082 SWAP3 SWAP2 SWAP1 PUSH2 0x1FA8 JUMP JUMPDEST PUSH1 0x40 MLOAD PUSH1 0x20 DUP2 DUP4 SUB SUB DUP2 MSTORE SWAP1 PUSH1 0x40 MSTORE JUMPDEST SWAP2 POP POP SWAP2 SWAP1 POP JUMP JUMPDEST PUSH1 0x0 PUSH1 0x7 PUSH1 0x0 DUP5 PUSH20 0xFFFFFFFFFFFFFFFFFFFFFFFFFFFFFFFFFFFFFFFF AND PUSH20 0xFFFFFFFFFFFFFFFFFFFFFFFFFFFFFFFFFFFFFFFF AND DUP2 MSTORE PUSH1 0x20 ADD SWAP1 DUP2 MSTORE PUSH1 0x20 ADD PUSH1 0x0 KECCAK256 PUSH1 0x0 DUP4 PUSH20 0xFFFFFFFFFFFFFFFFFFFFFFFFFFFFFFFFFFFFFFFF AND PUSH20 0xFFFFFFFFFFFFFFFFFFFFFFFFFFFFFFFFFFFFFFFF AND DUP2 MSTORE PUSH1 0x20 ADD SWAP1 DUP2 MSTORE PUSH1 0x20 ADD PUSH1 0x0 KECCAK256 PUSH1 0x0 SWAP1 SLOAD SWAP1 PUSH2 0x100 EXP SWAP1 DIV PUSH1 0xFF AND SWAP1 POP SWAP3 SWAP2 POP POP JUMP JUMPDEST PUSH1 0x0 DUP2 PUSH2 0x1139 PUSH2 0x1195 JUMP JUMPDEST GT ISZERO DUP1 ISZERO PUSH2 0x1148 JUMPI POP PUSH1 0x0 SLOAD DUP3 LT JUMPDEST DUP1 ISZERO PUSH2 0x1186 JUMPI POP PUSH1 0x0 PUSH29 0x100000000000000000000000000000000000000000000000000000000 PUSH1 0x4 PUSH1 0x0 DUP6 DUP2 MSTORE PUSH1 0x20 ADD SWAP1 DUP2 MSTORE PUSH1 0x20 ADD PUSH1 0x0 KECCAK256 SLOAD AND EQ JUMPDEST SWAP1 POP SWAP2 SWAP1 POP JUMP JUMPDEST PUSH1 0x0 CALLER SWAP1 POP SWAP1 JUMP JUMPDEST PUSH1 0x0 SWAP1 JUMP JUMPDEST PUSH1 0x0 DUP1 DUP3 SWAP1 POP DUP1 PUSH2 0x11A9 PUSH2 0x1195 JUMP JUMPDEST GT PUSH2 0x122F JUMPI PUSH1 0x0 SLOAD DUP2 LT ISZERO PUSH2 0x122E JUMPI PUSH1 0x0 PUSH1 0x4 PUSH1 0x0 DUP4 DUP2 MSTORE PUSH1 0x20 ADD SWAP1 DUP2 MSTORE PUSH1 0x20 ADD PUSH1 0x0 KECCAK256 SLOAD SWAP1 POP PUSH1 0x0 PUSH29 0x100000000000000000000000000000000000000000000000000000000 DUP3 AND SUB PUSH2 0x122C JUMPI JUMPDEST PUSH1 0x0 DUP2 SUB PUSH2 0x1222 JUMPI PUSH1 0x4 PUSH1 0x0 DUP4 PUSH1 0x1 SWAP1 SUB SWAP4 POP DUP4 DUP2 MSTORE PUSH1 0x20 ADD SWAP1 DUP2 MSTORE PUSH1 0x20 ADD PUSH1 0x0 KECCAK256 SLOAD SWAP1 POP PUSH2 0x11F8 JUMP JUMPDEST DUP1 SWAP3 POP POP POP PUSH2 0x1261 JUMP JUMPDEST POP JUMPDEST JUMPDEST PUSH1 0x40 MLOAD PUSH32 0xDF2D9B4200000000000000000000000000000000000000000000000000000000 DUP2 MSTORE PUSH1 0x4 ADD PUSH1 0x40 MLOAD DUP1 SWAP2 SUB SWAP1 REVERT JUMPDEST SWAP2 SWAP1 POP JUMP JUMPDEST PUSH1 0x0 DUP1 PUSH1 0x0 PUSH1 0x6 PUSH1 0x0 DUP6 DUP2 MSTORE PUSH1 0x20 ADD SWAP1 DUP2 MSTORE PUSH1 0x20 ADD PUSH1 0x0 KECCAK256 SWAP1 POP DUP1 SWAP3 POP DUP3 SLOAD SWAP2 POP POP SWAP2 POP SWAP2 JUMP JUMPDEST PUSH1 0x0 PUSH20 0xFFFFFFFFFFFFFFFFFFFFFFFFFFFFFFFFFFFFFFFF DUP4 AND SWAP3 POP PUSH20 0xFFFFFFFFFFFFFFFFFFFFFFFFFFFFFFFFFFFFFFFF DUP3 AND SWAP2 POP DUP4 DUP3 EQ DUP4 DUP4 EQ OR SWAP1 POP SWAP4 SWAP3 POP POP POP JUMP JUMPDEST POP POP POP POP JUMP JUMPDEST PUSH1 0x0 DUP1 PUSH1 0xE8 DUP4 SWAP1 SHR SWAP1 POP PUSH1 0xE8 PUSH2 0x12EE DUP7 DUP7 DUP5 PUSH2 0x1580 JUMP JUMPDEST PUSH3 0xFFFFFF AND SWAP1 SHL SWAP2 POP POP SWAP4 SWAP3 POP POP POP JUMP JUMPDEST PUSH1 0x0 PUSH20 0xFFFFFFFFFFFFFFFFFFFFFFFFFFFFFFFFFFFFFFFF DUP4 AND SWAP3 POP DUP2 TIMESTAMP PUSH1 0xA0 SHL OR DUP4 OR SWAP1 POP SWAP3 SWAP2 POP POP JUMP JUMPDEST POP POP POP POP JUMP JUMPDEST PUSH2 0x134A DUP3 DUP3 PUSH1 0x40 MLOAD DUP1 PUSH1 0x20 ADD PUSH1 0x40 MSTORE DUP1 PUSH1 0x0 DUP2 MSTORE POP PUSH2 0x1589 JUMP JUMPDEST POP POP JUMP JUMPDEST PUSH1 0x0 DUP4 PUSH20 0xFFFFFFFFFFFFFFFFFFFFFFFFFFFFFFFFFFFFFFFF AND PUSH4 0x150B7A02 PUSH2 0x1374 PUSH2 0x118D JUMP JUMPDEST DUP8 DUP7 DUP7 PUSH1 0x40 MLOAD DUP6 PUSH4 0xFFFFFFFF AND PUSH1 0xE0 SHL DUP2 MSTORE PUSH1 0x4 ADD PUSH2 0x1396 SWAP5 SWAP4 SWAP3 SWAP2 SWAP1 PUSH2 0x2021 JUMP JUMPDEST PUSH1 0x20 PUSH1 0x40 MLOAD DUP1 DUP4 SUB DUP2 PUSH1 0x0 DUP8 GAS CALL SWAP3 POP POP POP DUP1 ISZERO PUSH2 0x13D2 JUMPI POP PUSH1 0x40 MLOAD RETURNDATASIZE PUSH1 0x1F NOT PUSH1 0x1F DUP3 ADD AND DUP3 ADD DUP1 PUSH1 0x40 MSTORE POP DUP2 ADD SWAP1 PUSH2 0x13CF SWAP2 SWAP1 PUSH2 0x2082 JUMP JUMPDEST PUSH1 0x1 JUMPDEST PUSH2 0x144B JUMPI RETURNDATASIZE DUP1 PUSH1 0x0 DUP2 EQ PUSH2 0x1402 JUMPI PUSH1 0x40 MLOAD SWAP2 POP PUSH1 0x1F NOT PUSH1 0x3F RETURNDATASIZE ADD AND DUP3 ADD PUSH1 0x40 MSTORE RETURNDATASIZE DUP3 MSTORE RETURNDATASIZE PUSH1 0x0 PUSH1 0x20 DUP5 ADD RETURNDATACOPY PUSH2 0x1407 JUMP JUMPDEST PUSH1 0x60 SWAP2 POP JUMPDEST POP PUSH1 0x0 DUP2 MLOAD SUB PUSH2 0x1443 JUMPI PUSH1 0x40 MLOAD PUSH32 0xD1A57ED600000000000000000000000000000000000000000000000000000000 DUP2 MSTORE PUSH1 0x4 ADD PUSH1 0x40 MLOAD DUP1 SWAP2 SUB SWAP1 REVERT JUMPDEST DUP1 MLOAD DUP2 PUSH1 0x20 ADD REVERT JUMPDEST PUSH4 0x150B7A02 PUSH1 0xE0 SHL PUSH28 0xFFFFFFFFFFFFFFFFFFFFFFFFFFFFFFFFFFFFFFFFFFFFFFFFFFFFFFFF NOT AND DUP2 PUSH28 0xFFFFFFFFFFFFFFFFFFFFFFFFFFFFFFFFFFFFFFFFFFFFFFFFFFFFFFFF NOT AND EQ SWAP2 POP POP SWAP5 SWAP4 POP POP POP POP JUMP JUMPDEST PUSH1 0x60 PUSH1 0x8 DUP1 SLOAD PUSH2 0x14AD SWAP1 PUSH2 0x1DDA JUMP JUMPDEST DUP1 PUSH1 0x1F ADD PUSH1 0x20 DUP1 SWAP2 DIV MUL PUSH1 0x20 ADD PUSH1 0x40 MLOAD SWAP1 DUP2 ADD PUSH1 0x40 MSTORE DUP1 SWAP3 SWAP2 SWAP1 DUP2 DUP2 MSTORE PUSH1 0x20 ADD DUP3 DUP1 SLOAD PUSH2 0x14D9 SWAP1 PUSH2 0x1DDA JUMP JUMPDEST DUP1 ISZERO PUSH2 0x1526 JUMPI DUP1 PUSH1 0x1F LT PUSH2 0x14FB JUMPI PUSH2 0x100 DUP1 DUP4 SLOAD DIV MUL DUP4 MSTORE SWAP2 PUSH1 0x20 ADD SWAP2 PUSH2 0x1526 JUMP JUMPDEST DUP3 ADD SWAP2 SWAP1 PUSH1 0x0 MSTORE PUSH1 0x20 PUSH1 0x0 KECCAK256 SWAP1 JUMPDEST DUP2 SLOAD DUP2 MSTORE SWAP1 PUSH1 0x1 ADD SWAP1 PUSH1 0x20 ADD DUP1 DUP4 GT PUSH2 0x1509 JUMPI DUP3 SWAP1 SUB PUSH1 0x1F AND DUP3 ADD SWAP2 JUMPDEST POP POP POP POP POP SWAP1 POP SWAP1 JUMP JUMPDEST PUSH1 0x60 PUSH1 0xA0 PUSH1 0x40 MLOAD ADD DUP1 PUSH1 0x40 MSTORE PUSH1 0x20 DUP2 SUB SWAP2 POP PUSH1 0x0 DUP3 MSTORE DUP2 DUP4 JUMPDEST PUSH1 0x1 ISZERO PUSH2 0x156B JUMPI PUSH1 0x1 DUP5 SUB SWAP4 POP PUSH1 0xA DUP2 MOD PUSH1 0x30 ADD DUP5 MSTORE8 PUSH1 0xA DUP2 DIV SWAP1 POP DUP1 PUSH2 0x1549 JUMPI JUMPDEST POP DUP3 DUP2 SUB PUSH1 0x20 DUP5 SUB SWAP4 POP DUP1 DUP5 MSTORE POP POP POP SWAP2 SWAP1 POP JUMP JUMPDEST PUSH1 0x0 SWAP4 SWAP3 POP POP POP JUMP JUMPDEST PUSH2 0x1593 DUP4 DUP4 PUSH2 0x1626 JUMP JUMPDEST PUSH1 0x0 DUP4 PUSH20 0xFFFFFFFFFFFFFFFFFFFFFFFFFFFFFFFFFFFFFFFF AND EXTCODESIZE EQ PUSH2 0x1621 JUMPI PUSH1 0x0 DUP1 SLOAD SWAP1 POP PUSH1 0x0 DUP4 DUP3 SUB SWAP1 POP JUMPDEST PUSH2 0x15D3 PUSH1 0x0 DUP7 DUP4 DUP1 PUSH1 0x1 ADD SWAP5 POP DUP7 PUSH2 0x134E JUMP JUMPDEST PUSH2 0x1609 JUMPI PUSH1 0x40 MLOAD PUSH32 0xD1A57ED600000000000000000000000000000000000000000000000000000000 DUP2 MSTORE PUSH1 0x4 ADD PUSH1 0x40 MLOAD DUP1 SWAP2 SUB SWAP1 REVERT JUMPDEST DUP2 DUP2 LT PUSH2 0x15C0 JUMPI DUP2 PUSH1 0x0 SLOAD EQ PUSH2 0x161E JUMPI PUSH1 0x0 DUP1 REVERT JUMPDEST POP POP JUMPDEST POP POP POP JUMP JUMPDEST PUSH1 0x0 DUP1 SLOAD SWAP1 POP PUSH1 0x0 DUP3 SUB PUSH2 0x1666 JUMPI PUSH1 0x40 MLOAD PUSH32 0xB562E8DD00000000000000000000000000000000000000000000000000000000 DUP2 MSTORE PUSH1 0x4 ADD PUSH1 0x40 MLOAD DUP1 SWAP2 SUB SWAP1 REVERT JUMPDEST PUSH2 0x1673 PUSH1 0x0 DUP5 DUP4 DUP6 PUSH2 0x12D1 JUMP JUMPDEST PUSH1 0x1 PUSH1 0x40 PUSH1 0x1 SWAP1 SHL OR DUP3 MUL PUSH1 0x5 PUSH1 0x0 DUP6 PUSH20 0xFFFFFFFFFFFFFFFFFFFFFFFFFFFFFFFFFFFFFFFF AND PUSH20 0xFFFFFFFFFFFFFFFFFFFFFFFFFFFFFFFFFFFFFFFF AND DUP2 MSTORE PUSH1 0x20 ADD SWAP1 DUP2 MSTORE PUSH1 0x20 ADD PUSH1 0x0 KECCAK256 PUSH1 0x0 DUP3 DUP3 SLOAD ADD SWAP3 POP POP DUP2 SWAP1 SSTORE POP PUSH2 0x16EA DUP4 PUSH2 0x16DB PUSH1 0x0 DUP7 PUSH1 0x0 PUSH2 0x12D7 JUMP JUMPDEST PUSH2 0x16E4 DUP6 PUSH2 0x17E1 JUMP JUMPDEST OR PUSH2 0x12FF JUMP JUMPDEST PUSH1 0x4 PUSH1 0x0 DUP4 DUP2 MSTORE PUSH1 0x20 ADD SWAP1 DUP2 MSTORE PUSH1 0x20 ADD PUSH1 0x0 KECCAK256 DUP2 SWAP1 SSTORE POP PUSH1 0x0 DUP1 DUP4 DUP4 ADD SWAP1 POP PUSH20 0xFFFFFFFFFFFFFFFFFFFFFFFFFFFFFFFFFFFFFFFF DUP6 AND SWAP2 POP DUP3 DUP3 PUSH1 0x0 PUSH32 0xDDF252AD1BE2C89B69C2B068FC378DAA952BA7F163C4A11628F55A4DF523B3EF PUSH1 0x0 DUP1 LOG4 PUSH1 0x1 DUP4 ADD JUMPDEST DUP2 DUP2 EQ PUSH2 0x178B JUMPI DUP1 DUP4 PUSH1 0x0 PUSH32 0xDDF252AD1BE2C89B69C2B068FC378DAA952BA7F163C4A11628F55A4DF523B3EF PUSH1 0x0 DUP1 LOG4 PUSH1 0x1 DUP2 ADD SWAP1 POP PUSH2 0x1750 JUMP JUMPDEST POP PUSH1 0x0 DUP3 SUB PUSH2 0x17C6 JUMPI PUSH1 0x40 MLOAD PUSH32 0x2E07630000000000000000000000000000000000000000000000000000000000 DUP2 MSTORE PUSH1 0x4 ADD PUSH1 0x40 MLOAD DUP1 SWAP2 SUB SWAP1 REVERT JUMPDEST DUP1 PUSH1 0x0 DUP2 SWAP1 SSTORE POP POP POP PUSH2 0x17DC PUSH1 0x0 DUP5 DUP4 DUP6 PUSH2 0x132A JUMP JUMPDEST POP POP POP JUMP JUMPDEST PUSH1 0x0 PUSH1 0x1 DUP3 EQ PUSH1 0xE1 SHL SWAP1 POP SWAP2 SWAP1 POP JUMP JUMPDEST PUSH1 0x0 PUSH1 0x40 MLOAD SWAP1 POP SWAP1 JUMP JUMPDEST PUSH1 0x0 DUP1 REVERT JUMPDEST PUSH1 0x0 DUP1 REVERT JUMPDEST PUSH1 0x0 PUSH32 0xFFFFFFFF00000000000000000000000000000000000000000000000000000000 DUP3 AND SWAP1 POP SWAP2 SWAP1 POP JUMP JUMPDEST PUSH2 0x183A DUP2 PUSH2 0x1805 JUMP JUMPDEST DUP2 EQ PUSH2 0x1845 JUMPI PUSH1 0x0 DUP1 REVERT JUMPDEST POP JUMP JUMPDEST PUSH1 0x0 DUP2 CALLDATALOAD SWAP1 POP PUSH2 0x1857 DUP2 PUSH2 0x1831 JUMP JUMPDEST SWAP3 SWAP2 POP POP JUMP JUMPDEST PUSH1 0x0 PUSH1 0x20 DUP3 DUP5 SUB SLT ISZERO PUSH2 0x1873 JUMPI PUSH2 0x1872 PUSH2 0x17FB JUMP JUMPDEST JUMPDEST PUSH1 0x0 PUSH2 0x1881 DUP5 DUP3 DUP6 ADD PUSH2 0x1848 JUMP JUMPDEST SWAP2 POP POP SWAP3 SWAP2 POP POP JUMP JUMPDEST PUSH1 0x0 DUP2 ISZERO ISZERO SWAP1 POP SWAP2 SWAP1 POP JUMP JUMPDEST PUSH2 0x189F DUP2 PUSH2 0x188A JUMP JUMPDEST DUP3 MSTORE POP POP JUMP JUMPDEST PUSH1 0x0 PUSH1 0x20 DUP3 ADD SWAP1 POP PUSH2 0x18BA PUSH1 0x0 DUP4 ADD DUP5 PUSH2 0x1896 JUMP JUMPDEST SWAP3 SWAP2 POP POP JUMP JUMPDEST PUSH1 0x0 DUP2 MLOAD SWAP1 POP SWAP2 SWAP1 POP JUMP JUMPDEST PUSH1 0x0 DUP3 DUP3 MSTORE PUSH1 0x20 DUP3 ADD SWAP1 POP SWAP3 SWAP2 POP POP JUMP JUMPDEST PUSH1 0x0 JUMPDEST DUP4 DUP2 LT ISZERO PUSH2 0x18FA JUMPI DUP1 DUP3 ADD MLOAD DUP2 DUP5 ADD MSTORE PUSH1 0x20 DUP2 ADD SWAP1 POP PUSH2 0x18DF JUMP JUMPDEST PUSH1 0x0 DUP5 DUP5 ADD MSTORE POP POP POP POP JUMP JUMPDEST PUSH1 0x0 PUSH1 0x1F NOT PUSH1 0x1F DUP4 ADD AND SWAP1 POP SWAP2 SWAP1 POP JUMP JUMPDEST PUSH1 0x0 PUSH2 0x1922 DUP3 PUSH2 0x18C0 JUMP JUMPDEST PUSH2 0x192C DUP2 DUP6 PUSH2 0x18CB JUMP JUMPDEST SWAP4 POP PUSH2 0x193C DUP2 DUP6 PUSH1 0x20 DUP7 ADD PUSH2 0x18DC JUMP JUMPDEST PUSH2 0x1945 DUP2 PUSH2 0x1906 JUMP JUMPDEST DUP5 ADD SWAP2 POP POP SWAP3 SWAP2 POP POP JUMP JUMPDEST PUSH1 0x0 PUSH1 0x20 DUP3 ADD SWAP1 POP DUP2 DUP2 SUB PUSH1 0x0 DUP4 ADD MSTORE PUSH2 0x196A DUP2 DUP5 PUSH2 0x1917 JUMP JUMPDEST SWAP1 POP SWAP3 SWAP2 POP POP JUMP JUMPDEST PUSH1 0x0 DUP2 SWAP1 POP SWAP2 SWAP1 POP JUMP JUMPDEST PUSH2 0x1985 DUP2 PUSH2 0x1972 JUMP JUMPDEST DUP2 EQ PUSH2 0x1990 JUMPI PUSH1 0x0 DUP1 REVERT JUMPDEST POP JUMP JUMPDEST PUSH1 0x0 DUP2 CALLDATALOAD SWAP1 POP PUSH2 0x19A2 DUP2 PUSH2 0x197C JUMP JUMPDEST SWAP3 SWAP2 POP POP JUMP JUMPDEST PUSH1 0x0 PUSH1 0x20 DUP3 DUP5 SUB SLT ISZERO PUSH2 0x19BE JUMPI PUSH2 0x19BD PUSH2 0x17FB JUMP JUMPDEST JUMPDEST PUSH1 0x0 PUSH2 0x19CC DUP5 DUP3 DUP6 ADD PUSH2 0x1993 JUMP JUMPDEST SWAP2 POP POP SWAP3 SWAP2 POP POP JUMP JUMPDEST PUSH1 0x0 PUSH20 0xFFFFFFFFFFFFFFFFFFFFFFFFFFFFFFFFFFFFFFFF DUP3 AND SWAP1 POP SWAP2 SWAP1 POP JUMP JUMPDEST PUSH1 0x0 PUSH2 0x1A00 DUP3 PUSH2 0x19D5 JUMP JUMPDEST SWAP1 POP SWAP2 SWAP1 POP JUMP JUMPDEST PUSH2 0x1A10 DUP2 PUSH2 0x19F5 JUMP JUMPDEST DUP3 MSTORE POP POP JUMP JUMPDEST PUSH1 0x0 PUSH1 0x20 DUP3 ADD SWAP1 POP PUSH2 0x1A2B PUSH1 0x0 DUP4 ADD DUP5 PUSH2 0x1A07 JUMP JUMPDEST SWAP3 SWAP2 POP POP JUMP JUMPDEST PUSH2 0x1A3A DUP2 PUSH2 0x19F5 JUMP JUMPDEST DUP2 EQ PUSH2 0x1A45 JUMPI PUSH1 0x0 DUP1 REVERT JUMPDEST POP JUMP JUMPDEST PUSH1 0x0 DUP2 CALLDATALOAD SWAP1 POP PUSH2 0x1A57 DUP2 PUSH2 0x1A31 JUMP JUMPDEST SWAP3 SWAP2 POP POP JUMP JUMPDEST PUSH1 0x0 DUP1 PUSH1 0x40 DUP4 DUP6 SUB SLT ISZERO PUSH2 0x1A74 JUMPI PUSH2 0x1A73 PUSH2 0x17FB JUMP JUMPDEST JUMPDEST PUSH1 0x0 PUSH2 0x1A82 DUP6 DUP3 DUP7 ADD PUSH2 0x1A48 JUMP JUMPDEST SWAP3 POP POP PUSH1 0x20 PUSH2 0x1A93 DUP6 DUP3 DUP7 ADD PUSH2 0x1993 JUMP JUMPDEST SWAP2 POP POP SWAP3 POP SWAP3 SWAP1 POP JUMP JUMPDEST PUSH2 0x1AA6 DUP2 PUSH2 0x1972 JUMP JUMPDEST DUP3 MSTORE POP POP JUMP JUMPDEST PUSH1 0x0 PUSH1 0x20 DUP3 ADD SWAP1 POP PUSH2 0x1AC1 PUSH1 0x0 DUP4 ADD DUP5 PUSH2 0x1A9D JUMP JUMPDEST SWAP3 SWAP2 POP POP JUMP JUMPDEST PUSH1 0x0 DUP1 PUSH1 0x0 PUSH1 0x60 DUP5 DUP7 SUB SLT ISZERO PUSH2 0x1AE0 JUMPI PUSH2 0x1ADF PUSH2 0x17FB JUMP JUMPDEST JUMPDEST PUSH1 0x0 PUSH2 0x1AEE DUP7 DUP3 DUP8 ADD PUSH2 0x1A48 JUMP JUMPDEST SWAP4 POP POP PUSH1 0x20 PUSH2 0x1AFF DUP7 DUP3 DUP8 ADD PUSH2 0x1A48 JUMP JUMPDEST SWAP3 POP POP PUSH1 0x40 PUSH2 0x1B10 DUP7 DUP3 DUP8 ADD PUSH2 0x1993 JUMP JUMPDEST SWAP2 POP POP SWAP3 POP SWAP3 POP SWAP3 JUMP JUMPDEST PUSH1 0x0 PUSH1 0x20 DUP3 DUP5 SUB SLT ISZERO PUSH2 0x1B30 JUMPI PUSH2 0x1B2F PUSH2 0x17FB JUMP JUMPDEST JUMPDEST PUSH1 0x0 PUSH2 0x1B3E DUP5 DUP3 DUP6 ADD PUSH2 0x1A48 JUMP JUMPDEST SWAP2 POP POP SWAP3 SWAP2 POP POP JUMP JUMPDEST PUSH2 0x1B50 DUP2 PUSH2 0x188A JUMP JUMPDEST DUP2 EQ PUSH2 0x1B5B JUMPI PUSH1 0x0 DUP1 REVERT JUMPDEST POP JUMP JUMPDEST PUSH1 0x0 DUP2 CALLDATALOAD SWAP1 POP PUSH2 0x1B6D DUP2 PUSH2 0x1B47 JUMP JUMPDEST SWAP3 SWAP2 POP POP JUMP JUMPDEST PUSH1 0x0 DUP1 PUSH1 0x40 DUP4 DUP6 SUB SLT ISZERO PUSH2 0x1B8A JUMPI PUSH2 0x1B89 PUSH2 0x17FB JUMP JUMPDEST JUMPDEST PUSH1 0x0 PUSH2 0x1B98 DUP6 DUP3 DUP7 ADD PUSH2 0x1A48 JUMP JUMPDEST SWAP3 POP POP PUSH1 0x20 PUSH2 0x1BA9 DUP6 DUP3 DUP7 ADD PUSH2 0x1B5E JUMP JUMPDEST SWAP2 POP POP SWAP3 POP SWAP3 SWAP1 POP JUMP JUMPDEST PUSH1 0x0 DUP1 REVERT JUMPDEST PUSH1 0x0 DUP1 REVERT JUMPDEST PUSH32 0x4E487B7100000000000000000000000000000000000000000000000000000000 PUSH1 0x0 MSTORE PUSH1 0x41 PUSH1 0x4 MSTORE PUSH1 0x24 PUSH1 0x0 REVERT JUMPDEST PUSH2 0x1BF5 DUP3 PUSH2 0x1906 JUMP JUMPDEST DUP2 ADD DUP2 DUP2 LT PUSH8 0xFFFFFFFFFFFFFFFF DUP3 GT OR ISZERO PUSH2 0x1C14 JUMPI PUSH2 0x1C13 PUSH2 0x1BBD JUMP JUMPDEST JUMPDEST DUP1 PUSH1 0x40 MSTORE POP POP POP JUMP JUMPDEST PUSH1 0x0 PUSH2 0x1C27 PUSH2 0x17F1 JUMP JUMPDEST SWAP1 POP PUSH2 0x1C33 DUP3 DUP3 PUSH2 0x1BEC JUMP JUMPDEST SWAP2 SWAP1 POP JUMP JUMPDEST PUSH1 0x0 PUSH8 0xFFFFFFFFFFFFFFFF DUP3 GT ISZERO PUSH2 0x1C53 JUMPI PUSH2 0x1C52 PUSH2 0x1BBD JUMP JUMPDEST JUMPDEST PUSH2 0x1C5C DUP3 PUSH2 0x1906 JUMP JUMPDEST SWAP1 POP PUSH1 0x20 DUP2 ADD SWAP1 POP SWAP2 SWAP1 POP JUMP JUMPDEST DUP3 DUP2 DUP4 CALLDATACOPY PUSH1 0x0 DUP4 DUP4 ADD MSTORE POP POP POP JUMP JUMPDEST PUSH1 0x0 PUSH2 0x1C8B PUSH2 0x1C86 DUP5 PUSH2 0x1C38 JUMP JUMPDEST PUSH2 0x1C1D JUMP JUMPDEST SWAP1 POP DUP3 DUP2 MSTORE PUSH1 0x20 DUP2 ADD DUP5 DUP5 DUP5 ADD GT ISZERO PUSH2 0x1CA7 JUMPI PUSH2 0x1CA6 PUSH2 0x1BB8 JUMP JUMPDEST JUMPDEST PUSH2 0x1CB2 DUP5 DUP3 DUP6 PUSH2 0x1C69 JUMP JUMPDEST POP SWAP4 SWAP3 POP POP POP JUMP JUMPDEST PUSH1 0x0 DUP3 PUSH1 0x1F DUP4 ADD SLT PUSH2 0x1CCF JUMPI PUSH2 0x1CCE PUSH2 0x1BB3 JUMP JUMPDEST JUMPDEST DUP2 CALLDATALOAD PUSH2 0x1CDF DUP5 DUP3 PUSH1 0x20 DUP7 ADD PUSH2 0x1C78 JUMP JUMPDEST SWAP2 POP POP SWAP3 SWAP2 POP POP JUMP JUMPDEST PUSH1 0x0 DUP1 PUSH1 0x0 DUP1 PUSH1 0x80 DUP6 DUP8 SUB SLT ISZERO PUSH2 0x1D02 JUMPI PUSH2 0x1D01 PUSH2 0x17FB JUMP JUMPDEST JUMPDEST PUSH1 0x0 PUSH2 0x1D10 DUP8 DUP3 DUP9 ADD PUSH2 0x1A48 JUMP JUMPDEST SWAP5 POP POP PUSH1 0x20 PUSH2 0x1D21 DUP8 DUP3 DUP9 ADD PUSH2 0x1A48 JUMP JUMPDEST SWAP4 POP POP PUSH1 0x40 PUSH2 0x1D32 DUP8 DUP3 DUP9 ADD PUSH2 0x1993 JUMP JUMPDEST SWAP3 POP POP PUSH1 0x60 DUP6 ADD CALLDATALOAD PUSH8 0xFFFFFFFFFFFFFFFF DUP2 GT ISZERO PUSH2 0x1D53 JUMPI PUSH2 0x1D52 PUSH2 0x1800 JUMP JUMPDEST JUMPDEST PUSH2 0x1D5F DUP8 DUP3 DUP9 ADD PUSH2 0x1CBA JUMP JUMPDEST SWAP2 POP POP SWAP3 SWAP6 SWAP2 SWAP5 POP SWAP3 POP JUMP JUMPDEST PUSH1 0x0 DUP1 PUSH1 0x40 DUP4 DUP6 SUB SLT ISZERO PUSH2 0x1D82 JUMPI PUSH2 0x1D81 PUSH2 0x17FB JUMP JUMPDEST JUMPDEST PUSH1 0x0 PUSH2 0x1D90 DUP6 DUP3 DUP7 ADD PUSH2 0x1A48 JUMP JUMPDEST SWAP3 POP POP PUSH1 0x20 PUSH2 0x1DA1 DUP6 DUP3 DUP7 ADD PUSH2 0x1A48 JUMP JUMPDEST SWAP2 POP POP SWAP3 POP SWAP3 SWAP1 POP JUMP JUMPDEST PUSH32 0x4E487B7100000000000000000000000000000000000000000000000000000000 PUSH1 0x0 MSTORE PUSH1 0x22 PUSH1 0x4 MSTORE PUSH1 0x24 PUSH1 0x0 REVERT JUMPDEST PUSH1 0x0 PUSH1 0x2 DUP3 DIV SWAP1 POP PUSH1 0x1 DUP3 AND DUP1 PUSH2 0x1DF2 JUMPI PUSH1 0x7F DUP3 AND SWAP2 POP JUMPDEST PUSH1 0x20 DUP3 LT DUP2 SUB PUSH2 0x1E05 JUMPI PUSH2 0x1E04 PUSH2 0x1DAB JUMP JUMPDEST JUMPDEST POP SWAP2 SWAP1 POP JUMP JUMPDEST PUSH32 0x4F6E6C7920636F6E7472616374206F776E65722063616E2063616C6C20746869 PUSH1 0x0 DUP3 ADD MSTORE PUSH32 0x732066756E6374696F6E00000000000000000000000000000000000000000000 PUSH1 0x20 DUP3 ADD MSTORE POP JUMP JUMPDEST PUSH1 0x0 PUSH2 0x1E67 PUSH1 0x2A DUP4 PUSH2 0x18CB JUMP JUMPDEST SWAP2 POP PUSH2 0x1E72 DUP3 PUSH2 0x1E0B JUMP JUMPDEST PUSH1 0x40 DUP3 ADD SWAP1 POP SWAP2 SWAP1 POP JUMP JUMPDEST PUSH1 0x0 PUSH1 0x20 DUP3 ADD SWAP1 POP DUP2 DUP2 SUB PUSH1 0x0 DUP4 ADD MSTORE PUSH2 0x1E96 DUP2 PUSH2 0x1E5A JUMP JUMPDEST SWAP1 POP SWAP2 SWAP1 POP JUMP JUMPDEST PUSH32 0x4E487B7100000000000000000000000000000000000000000000000000000000 PUSH1 0x0 MSTORE PUSH1 0x11 PUSH1 0x4 MSTORE PUSH1 0x24 PUSH1 0x0 REVERT JUMPDEST PUSH1 0x0 PUSH2 0x1ED7 DUP3 PUSH2 0x1972 JUMP JUMPDEST SWAP2 POP PUSH2 0x1EE2 DUP4 PUSH2 0x1972 JUMP JUMPDEST SWAP3 POP DUP3 DUP3 ADD SWAP1 POP DUP1 DUP3 GT ISZERO PUSH2 0x1EFA JUMPI PUSH2 0x1EF9 PUSH2 0x1E9D JUMP JUMPDEST JUMPDEST SWAP3 SWAP2 POP POP JUMP JUMPDEST PUSH32 0x596F757220676976656E207175616E7469747920697320696E76616C69640000 PUSH1 0x0 DUP3 ADD MSTORE POP JUMP JUMPDEST PUSH1 0x0 PUSH2 0x1F36 PUSH1 0x1E DUP4 PUSH2 0x18CB JUMP JUMPDEST SWAP2 POP PUSH2 0x1F41 DUP3 PUSH2 0x1F00 JUMP JUMPDEST PUSH1 0x20 DUP3 ADD SWAP1 POP SWAP2 SWAP1 POP JUMP JUMPDEST PUSH1 0x0 PUSH1 0x20 DUP3 ADD SWAP1 POP DUP2 DUP2 SUB PUSH1 0x0 DUP4 ADD MSTORE PUSH2 0x1F65 DUP2 PUSH2 0x1F29 JUMP JUMPDEST SWAP1 POP SWAP2 SWAP1 POP JUMP JUMPDEST PUSH1 0x0 DUP2 SWAP1 POP SWAP3 SWAP2 POP POP JUMP JUMPDEST PUSH1 0x0 PUSH2 0x1F82 DUP3 PUSH2 0x18C0 JUMP JUMPDEST PUSH2 0x1F8C DUP2 DUP6 PUSH2 0x1F6C JUMP JUMPDEST SWAP4 POP PUSH2 0x1F9C DUP2 DUP6 PUSH1 0x20 DUP7 ADD PUSH2 0x18DC JUMP JUMPDEST DUP1 DUP5 ADD SWAP2 POP POP SWAP3 SWAP2 POP POP JUMP JUMPDEST PUSH1 0x0 PUSH2 0x1FB4 DUP3 DUP6 PUSH2 0x1F77 JUMP JUMPDEST SWAP2 POP PUSH2 0x1FC0 DUP3 DUP5 PUSH2 0x1F77 JUMP JUMPDEST SWAP2 POP DUP2 SWAP1 POP SWAP4 SWAP3 POP POP POP JUMP JUMPDEST PUSH1 0x0 DUP2 MLOAD SWAP1 POP SWAP2 SWAP1 POP JUMP JUMPDEST PUSH1 0x0 DUP3 DUP3 MSTORE PUSH1 0x20 DUP3 ADD SWAP1 POP SWAP3 SWAP2 POP POP JUMP JUMPDEST PUSH1 0x0 PUSH2 0x1FF3 DUP3 PUSH2 0x1FCC JUMP JUMPDEST PUSH2 0x1FFD DUP2 DUP6 PUSH2 0x1FD7 JUMP JUMPDEST SWAP4 POP PUSH2 0x200D DUP2 DUP6 PUSH1 0x20 DUP7 ADD PUSH2 0x18DC JUMP JUMPDEST PUSH2 0x2016 DUP2 PUSH2 0x1906 JUMP JUMPDEST DUP5 ADD SWAP2 POP POP SWAP3 SWAP2 POP POP JUMP JUMPDEST PUSH1 0x0 PUSH1 0x80 DUP3 ADD SWAP1 POP PUSH2 0x2036 PUSH1 0x0 DUP4 ADD DUP8 PUSH2 0x1A07 JUMP JUMPDEST PUSH2 0x2043 PUSH1 0x20 DUP4 ADD DUP7 PUSH2 0x1A07 JUMP JUMPDEST PUSH2 0x2050 PUSH1 0x40 DUP4 ADD DUP6 PUSH2 0x1A9D JUMP JUMPDEST DUP2 DUP2 SUB PUSH1 0x60 DUP4 ADD MSTORE PUSH2 0x2062 DUP2 DUP5 PUSH2 0x1FE8 JUMP JUMPDEST SWAP1 POP SWAP6 SWAP5 POP POP POP POP POP JUMP JUMPDEST PUSH1 0x0 DUP2 MLOAD SWAP1 POP PUSH2 0x207C DUP2 PUSH2 0x1831 JUMP JUMPDEST SWAP3 SWAP2 POP POP JUMP JUMPDEST PUSH1 0x0 PUSH1 0x20 DUP3 DUP5 SUB SLT ISZERO PUSH2 0x2098 JUMPI PUSH2 0x2097 PUSH2 0x17FB JUMP JUMPDEST JUMPDEST PUSH1 0x0 PUSH2 0x20A6 DUP5 DUP3 DUP6 ADD PUSH2 0x206D JUMP JUMPDEST SWAP2 POP POP SWAP3 SWAP2 POP POP JUMP INVALID LOG2 PUSH5 0x6970667358 0x22 SLT KECCAK256 0x24 DUP11 DIV SWAP15 CALLDATALOAD 0xA7 RETURN 0x4B PUSH9 0x2029975441509876DD 0x2E 0xE6 0x4C GAS GT 0xE4 0xCA 0xC4 0xDD 0x2A SUB DUP11 0x1E DUP1 PUSH5 0x736F6C6343 STOP ADDMOD SGT STOP CALLER PUSH9 0x747470733A2F2F6761 PUSH21 0x657761792E70696E6174612E636C6F75642F697066 PUSH20 0x2F516D647675554C6A4A4B4B6A38684258725243 PUSH18 0x3236683370336F6D717774395A4A52343441 NUMBER CALLDATASIZE NUMBER PUSH22 0x5834324B2F0000000000000000000000000000000000 "},"methodIdentifiers":{"MAX_SUPPLY()":"32cb6b0c","approve(address,uint256)":"095ea7b3","balanceOf(address)":"70a08231","baseURI()":"6c0360eb","getApproved(uint256)":"081812fc","getName()":"17d7de7c","getSymbol()":"15070401","isApprovedForAll(address,address)":"e985e9c5","mint(uint256)":"a0712d68","name()":"06fdde03","owner()":"8da5cb5b","ownerOf(uint256)":"6352211e","promptDescription()":"95363731","safeTransferFrom(address,address,uint256)":"42842e0e","safeTransferFrom(address,address,uint256,bytes)":"b88d4fde","setApprovalForAll(address,bool)":"a22cb465","supportsInterface(bytes4)":"01ffc9a7","symbol()":"95d89b41","tokenURI(uint256)":"c87b56dd","totalSupply()":"18160ddd","transferFrom(address,address,uint256)":"23b872dd"}}}}}