{
  "_format": "hh-sol-artifact-1",
  "contractName": "Sukuna",
  "sourceName": "contracts/Sukuna.sol",
  "abi": [
    {
      "inputs": [],
      "stateMutability": "nonpayable",
      "type": "constructor"
    },
    {
      "inputs": [],
      "name": "ApprovalCallerNotOwnerNorApproved",
      "type": "error"
    },
    {
      "inputs": [],
      "name": "ApprovalQueryForNonexistentToken",
      "type": "error"
    },
    {
      "inputs": [],
      "name": "BalanceQueryForZeroAddress",
      "type": "error"
    },
    {
      "inputs": [],
      "name": "MintERC2309QuantityExceedsLimit",
      "type": "error"
    },
    {
      "inputs": [],
      "name": "MintToZeroAddress",
      "type": "error"
    },
    {
      "inputs": [],
      "name": "MintZeroQuantity",
      "type": "error"
    },
    {
      "inputs": [],
      "name": "OwnerQueryForNonexistentToken",
      "type": "error"
    },
    {
      "inputs": [],
      "name": "OwnershipNotInitializedForExtraData",
      "type": "error"
    },
    {
      "inputs": [
        {
          "internalType": "string",
          "name": "message",
          "type": "string"
        }
      ],
      "name": "QuantityInvalid",
      "type": "error"
    },
    {
      "inputs": [],
      "name": "TransferCallerNotOwnerNorApproved",
      "type": "error"
    },
    {
      "inputs": [],
      "name": "TransferFromIncorrectOwner",
      "type": "error"
    },
    {
      "inputs": [],
      "name": "TransferToNonERC721ReceiverImplementer",
      "type": "error"
    },
    {
      "inputs": [],
      "name": "TransferToZeroAddress",
      "type": "error"
    },
    {
      "inputs": [],
      "name": "URIQueryForNonexistentToken",
      "type": "error"
    },
    {
      "anonymous": false,
      "inputs": [
        {
          "indexed": true,
          "internalType": "address",
          "name": "owner",
          "type": "address"
        },
        {
          "indexed": true,
          "internalType": "address",
          "name": "approved",
          "type": "address"
        },
        {
          "indexed": true,
          "internalType": "uint256",
          "name": "tokenId",
          "type": "uint256"
        }
      ],
      "name": "Approval",
      "type": "event"
    },
    {
      "anonymous": false,
      "inputs": [
        {
          "indexed": true,
          "internalType": "address",
          "name": "owner",
          "type": "address"
        },
        {
          "indexed": true,
          "internalType": "address",
          "name": "operator",
          "type": "address"
        },
        {
          "indexed": false,
          "internalType": "bool",
          "name": "approved",
          "type": "bool"
        }
      ],
      "name": "ApprovalForAll",
      "type": "event"
    },
    {
      "anonymous": false,
      "inputs": [
        {
          "indexed": true,
          "internalType": "uint256",
          "name": "fromTokenId",
          "type": "uint256"
        },
        {
          "indexed": false,
          "internalType": "uint256",
          "name": "toTokenId",
          "type": "uint256"
        },
        {
          "indexed": true,
          "internalType": "address",
          "name": "from",
          "type": "address"
        },
        {
          "indexed": true,
          "internalType": "address",
          "name": "to",
          "type": "address"
        }
      ],
      "name": "ConsecutiveTransfer",
      "type": "event"
    },
    {
      "anonymous": false,
      "inputs": [
        {
          "indexed": true,
          "internalType": "address",
          "name": "from",
          "type": "address"
        },
        {
          "indexed": true,
          "internalType": "address",
          "name": "to",
          "type": "address"
        },
        {
          "indexed": true,
          "internalType": "uint256",
          "name": "tokenId",
          "type": "uint256"
        }
      ],
      "name": "Transfer",
      "type": "event"
    },
    {
      "inputs": [],
      "name": "MAX_SUPPLY",
      "outputs": [
        {
          "internalType": "uint256",
          "name": "",
          "type": "uint256"
        }
      ],
      "stateMutability": "view",
      "type": "function"
    },
    {
      "inputs": [
        {
          "internalType": "address",
          "name": "to",
          "type": "address"
        },
        {
          "internalType": "uint256",
          "name": "tokenId",
          "type": "uint256"
        }
      ],
      "name": "approve",
      "outputs": [],
      "stateMutability": "payable",
      "type": "function"
    },
    {
      "inputs": [
        {
          "internalType": "address",
          "name": "owner",
          "type": "address"
        }
      ],
      "name": "balanceOf",
      "outputs": [
        {
          "internalType": "uint256",
          "name": "",
          "type": "uint256"
        }
      ],
      "stateMutability": "view",
      "type": "function"
    },
    {
      "inputs": [],
      "name": "baseURI",
      "outputs": [
        {
          "internalType": "string",
          "name": "",
          "type": "string"
        }
      ],
      "stateMutability": "view",
      "type": "function"
    },
    {
      "inputs": [
        {
          "internalType": "uint256",
          "name": "tokenId",
          "type": "uint256"
        }
      ],
      "name": "getApproved",
      "outputs": [
        {
          "internalType": "address",
          "name": "",
          "type": "address"
        }
      ],
      "stateMutability": "view",
      "type": "function"
    },
    {
      "inputs": [],
      "name": "getName",
      "outputs": [
        {
          "internalType": "string",
          "name": "",
          "type": "string"
        }
      ],
      "stateMutability": "view",
      "type": "function"
    },
    {
      "inputs": [],
      "name": "getSymbol",
      "outputs": [
        {
          "internalType": "string",
          "name": "",
          "type": "string"
        }
      ],
      "stateMutability": "view",
      "type": "function"
    },
    {
      "inputs": [
        {
          "internalType": "address",
          "name": "owner",
          "type": "address"
        },
        {
          "internalType": "address",
          "name": "operator",
          "type": "address"
        }
      ],
      "name": "isApprovedForAll",
      "outputs": [
        {
          "internalType": "bool",
          "name": "",
          "type": "bool"
        }
      ],
      "stateMutability": "view",
      "type": "function"
    },
    {
      "inputs": [
        {
          "internalType": "uint256",
          "name": "quantity",
          "type": "uint256"
        }
      ],
      "name": "mint",
      "outputs": [],
      "stateMutability": "payable",
      "type": "function"
    },
    {
      "inputs": [],
      "name": "name",
      "outputs": [
        {
          "internalType": "string",
          "name": "",
          "type": "string"
        }
      ],
      "stateMutability": "view",
      "type": "function"
    },
    {
      "inputs": [],
      "name": "owner",
      "outputs": [
        {
          "internalType": "address",
          "name": "",
          "type": "address"
        }
      ],
      "stateMutability": "view",
      "type": "function"
    },
    {
      "inputs": [
        {
          "internalType": "uint256",
          "name": "tokenId",
          "type": "uint256"
        }
      ],
      "name": "ownerOf",
      "outputs": [
        {
          "internalType": "address",
          "name": "",
          "type": "address"
        }
      ],
      "stateMutability": "view",
      "type": "function"
    },
    {
      "inputs": [],
      "name": "promptDescription",
      "outputs": [
        {
          "internalType": "string",
          "name": "",
          "type": "string"
        }
      ],
      "stateMutability": "pure",
      "type": "function"
    },
    {
      "inputs": [
        {
          "internalType": "address",
          "name": "from",
          "type": "address"
        },
        {
          "internalType": "address",
          "name": "to",
          "type": "address"
        },
        {
          "internalType": "uint256",
          "name": "tokenId",
          "type": "uint256"
        }
      ],
      "name": "safeTransferFrom",
      "outputs": [],
      "stateMutability": "payable",
      "type": "function"
    },
    {
      "inputs": [
        {
          "internalType": "address",
          "name": "from",
          "type": "address"
        },
        {
          "internalType": "address",
          "name": "to",
          "type": "address"
        },
        {
          "internalType": "uint256",
          "name": "tokenId",
          "type": "uint256"
        },
        {
          "internalType": "bytes",
          "name": "_data",
          "type": "bytes"
        }
      ],
      "name": "safeTransferFrom",
      "outputs": [],
      "stateMutability": "payable",
      "type": "function"
    },
    {
      "inputs": [
        {
          "internalType": "address",
          "name": "operator",
          "type": "address"
        },
        {
          "internalType": "bool",
          "name": "approved",
          "type": "bool"
        }
      ],
      "name": "setApprovalForAll",
      "outputs": [],
      "stateMutability": "nonpayable",
      "type": "function"
    },
    {
      "inputs": [
        {
          "internalType": "bytes4",
          "name": "interfaceId",
          "type": "bytes4"
        }
      ],
      "name": "supportsInterface",
      "outputs": [
        {
          "internalType": "bool",
          "name": "",
          "type": "bool"
        }
      ],
      "stateMutability": "view",
      "type": "function"
    },
    {
      "inputs": [],
      "name": "symbol",
      "outputs": [
        {
          "internalType": "string",
          "name": "",
          "type": "string"
        }
      ],
      "stateMutability": "view",
      "type": "function"
    },
    {
      "inputs": [
        {
          "internalType": "uint256",
          "name": "tokenId",
          "type": "uint256"
        }
      ],
      "name": "tokenURI",
      "outputs": [
        {
          "internalType": "string",
          "name": "",
          "type": "string"
        }
      ],
      "stateMutability": "view",
      "type": "function"
    },
    {
      "inputs": [],
      "name": "totalSupply",
      "outputs": [
        {
          "internalType": "uint256",
          "name": "",
          "type": "uint256"
        }
      ],
      "stateMutability": "view",
      "type": "function"
    },
    {
      "inputs": [
        {
          "internalType": "address",
          "name": "from",
          "type": "address"
        },
        {
          "internalType": "address",
          "name": "to",
          "type": "address"
        },
        {
          "internalType": "uint256",
          "name": "tokenId",
          "type": "uint256"
        }
      ],
      "name": "transferFrom",
      "outputs": [],
      "stateMutability": "payable",
      "type": "function"
    }
  ],
  "bytecode": "0x60806040526040518060800160405280605181526020016200258760519139600890816200002e9190620003ab565b503480156200003c57600080fd5b506040518060400160405280600681526020017f53756b756e6100000000000000000000000000000000000000000000000000008152506040518060400160405280600681526020017f53756b756e6100000000000000000000000000000000000000000000000000008152508160029081620000ba9190620003ab565b508060039081620000cc9190620003ab565b50620000dd6200012c60201b60201c565b600081905550505033600960006101000a81548173ffffffffffffffffffffffffffffffffffffffff021916908373ffffffffffffffffffffffffffffffffffffffff16021790555062000492565b600090565b600081519050919050565b7f4e487b7100000000000000000000000000000000000000000000000000000000600052604160045260246000fd5b7f4e487b7100000000000000000000000000000000000000000000000000000000600052602260045260246000fd5b60006002820490506001821680620001b357607f821691505b602082108103620001c957620001c86200016b565b5b50919050565b60008190508160005260206000209050919050565b60006020601f8301049050919050565b600082821b905092915050565b600060088302620002337fffffffffffffffffffffffffffffffffffffffffffffffffffffffffffffffff82620001f4565b6200023f8683620001f4565b95508019841693508086168417925050509392505050565b6000819050919050565b6000819050919050565b60006200028c62000286620002808462000257565b62000261565b62000257565b9050919050565b6000819050919050565b620002a8836200026b565b620002c0620002b78262000293565b84845462000201565b825550505050565b600090565b620002d7620002c8565b620002e48184846200029d565b505050565b5b818110156200030c5762000300600082620002cd565b600181019050620002ea565b5050565b601f8211156200035b576200032581620001cf565b6200033084620001e4565b8101602085101562000340578190505b620003586200034f85620001e4565b830182620002e9565b50505b505050565b600082821c905092915050565b6000620003806000198460080262000360565b1980831691505092915050565b60006200039b83836200036d565b9150826002028217905092915050565b620003b68262000131565b67ffffffffffffffff811115620003d257620003d16200013c565b5b620003de82546200019a565b620003eb82828562000310565b600060209050601f8311600181146200042357600084156200040e578287015190505b6200041a85826200038d565b8655506200048a565b601f1984166200043386620001cf565b60005b828110156200045d5784890151825560018201915060208501945060208101905062000436565b868310156200047d578489015162000479601f8916826200036d565b8355505b6001600288020188555050505b505050505050565b6120e580620004a26000396000f3fe60806040526004361061012a5760003560e01c80636352211e116100ab57806395d89b411161006f57806395d89b41146103cf578063a0712d68146103fa578063a22cb46514610416578063b88d4fde1461043f578063c87b56dd1461045b578063e985e9c5146104985761012a565b80636352211e146102d45780636c0360eb1461031157806370a082311461033c5780638da5cb5b1461037957806395363731146103a45761012a565b806317d7de7c116100f257806317d7de7c1461021b57806318160ddd1461024657806323b872dd1461027157806332cb6b0c1461028d57806342842e0e146102b85761012a565b806301ffc9a71461012f57806306fdde031461016c578063081812fc14610197578063095ea7b3146101d457806315070401146101f0575b600080fd5b34801561013b57600080fd5b506101566004803603810190610151919061185d565b6104d5565b60405161016391906118a5565b60405180910390f35b34801561017857600080fd5b50610181610567565b60405161018e9190611950565b60405180910390f35b3480156101a357600080fd5b506101be60048036038101906101b991906119a8565b6105f9565b6040516101cb9190611a16565b60405180910390f35b6101ee60048036038101906101e99190611a5d565b610678565b005b3480156101fc57600080fd5b506102056107bc565b6040516102129190611950565b60405180910390f35b34801561022757600080fd5b506102306107cb565b60405161023d9190611950565b60405180910390f35b34801561025257600080fd5b5061025b6107da565b6040516102689190611aac565b60405180910390f35b61028b60048036038101906102869190611ac7565b6107f1565b005b34801561029957600080fd5b506102a2610b13565b6040516102af9190611aac565b60405180910390f35b6102d260048036038101906102cd9190611ac7565b610b18565b005b3480156102e057600080fd5b506102fb60048036038101906102f691906119a8565b610b38565b6040516103089190611a16565b60405180910390f35b34801561031d57600080fd5b50610326610b4a565b6040516103339190611950565b60405180910390f35b34801561034857600080fd5b50610363600480360381019061035e9190611b1a565b610bd8565b6040516103709190611aac565b60405180910390f35b34801561038557600080fd5b5061038e610c90565b60405161039b9190611a16565b60405180910390f35b3480156103b057600080fd5b506103b9610cb6565b6040516103c69190611950565b60405180910390f35b3480156103db57600080fd5b506103e4610cf3565b6040516103f19190611950565b60405180910390f35b610414600480360381019061040f91906119a8565b610d85565b005b34801561042257600080fd5b5061043d60048036038101906104389190611b73565b610e7e565b005b61045960048036038101906104549190611ce8565b610f89565b005b34801561046757600080fd5b50610482600480360381019061047d91906119a8565b610ffc565b60405161048f9190611950565b60405180910390f35b3480156104a457600080fd5b506104bf60048036038101906104ba9190611d6b565b61109a565b6040516104cc91906118a5565b60405180910390f35b60006301ffc9a760e01b827bffffffffffffffffffffffffffffffffffffffffffffffffffffffff1916148061053057506380ac58cd60e01b827bffffffffffffffffffffffffffffffffffffffffffffffffffffffff1916145b806105605750635b5e139f60e01b827bffffffffffffffffffffffffffffffffffffffffffffffffffffffff1916145b9050919050565b60606002805461057690611dda565b80601f01602080910402602001604051908101604052809291908181526020018280546105a290611dda565b80156105ef5780601f106105c4576101008083540402835291602001916105ef565b820191906000526020600020905b8154815290600101906020018083116105d257829003601f168201915b5050505050905090565b60006106048261112e565b61063a576040517fcf4700e400000000000000000000000000000000000000000000000000000000815260040160405180910390fd5b6006600083815260200190815260200160002060000160009054906101000a900473ffffffffffffffffffffffffffffffffffffffff169050919050565b600061068382610b38565b90508073ffffffffffffffffffffffffffffffffffffffff166106a461118d565b73ffffffffffffffffffffffffffffffffffffffff1614610707576106d0816106cb61118d565b61109a565b610706576040517fcfb3b94200000000000000000000000000000000000000000000000000000000815260040160405180910390fd5b5b826006600084815260200190815260200160002060000160006101000a81548173ffffffffffffffffffffffffffffffffffffffff021916908373ffffffffffffffffffffffffffffffffffffffff160217905550818373ffffffffffffffffffffffffffffffffffffffff168273ffffffffffffffffffffffffffffffffffffffff167f8c5be1e5ebec7d5bd14f71427d1e84f3dd0314c0f7b2291e5b200ac8c7c3b92560405160405180910390a4505050565b60606107c6610cf3565b905090565b60606107d5610567565b905090565b60006107e4611195565b6001546000540303905090565b60006107fc8261119a565b90508373ffffffffffffffffffffffffffffffffffffffff168173ffffffffffffffffffffffffffffffffffffffff1614610863576040517fa114810000000000000000000000000000000000000000000000000000000000815260040160405180910390fd5b60008061086f84611266565b91509150610885818761088061118d565b61128d565b6108d15761089a8661089561118d565b61109a565b6108d0576040517f59c896be00000000000000000000000000000000000000000000000000000000815260040160405180910390fd5b5b600073ffffffffffffffffffffffffffffffffffffffff168573ffffffffffffffffffffffffffffffffffffffff1603610937576040517fea553b3400000000000000000000000000000000000000000000000000000000815260040160405180910390fd5b61094486868660016112d1565b801561094f57600082555b600560008773ffffffffffffffffffffffffffffffffffffffff1673ffffffffffffffffffffffffffffffffffffffff168152602001908152602001600020600081546001900391905081905550600560008673ffffffffffffffffffffffffffffffffffffffff1673ffffffffffffffffffffffffffffffffffffffff1681526020019081526020016000206000815460010191905081905550610a1d856109f98888876112d7565b7c0200000000000000000000000000000000000000000000000000000000176112ff565b600460008681526020019081526020016000208190555060007c0200000000000000000000000000000000000000000000000000000000841603610aa35760006001850190506000600460008381526020019081526020016000205403610aa1576000548114610aa0578360046000838152602001908152602001600020819055505b5b505b838573ffffffffffffffffffffffffffffffffffffffff168773ffffffffffffffffffffffffffffffffffffffff167fddf252ad1be2c89b69c2b068fc378daa952ba7f163c4a11628f55a4df523b3ef60405160405180910390a4610b0b868686600161132a565b505050505050565b600581565b610b3383838360405180602001604052806000815250610f89565b505050565b6000610b438261119a565b9050919050565b60088054610b5790611dda565b80601f0160208091040260200160405190810160405280929190818152602001828054610b8390611dda565b8015610bd05780601f10610ba557610100808354040283529160200191610bd0565b820191906000526020600020905b815481529060010190602001808311610bb357829003601f168201915b505050505081565b60008073ffffffffffffffffffffffffffffffffffffffff168273ffffffffffffffffffffffffffffffffffffffff1603610c3f576040517f8f4eb60400000000000000000000000000000000000000000000000000000000815260040160405180910390fd5b67ffffffffffffffff600560008473ffffffffffffffffffffffffffffffffffffffff1673ffffffffffffffffffffffffffffffffffffffff16815260200190815260200160002054169050919050565b600960009054906101000a900473ffffffffffffffffffffffffffffffffffffffff1681565b60606040518060400160405280600e81526020017f73756b756e61206a756a75747375000000000000000000000000000000000000815250905090565b606060038054610d0290611dda565b80601f0160208091040260200160405190810160405280929190818152602001828054610d2e90611dda565b8015610d7b5780601f10610d5057610100808354040283529160200191610d7b565b820191906000526020600020905b815481529060010190602001808311610d5e57829003601f168201915b5050505050905090565b600960009054906101000a900473ffffffffffffffffffffffffffffffffffffffff1673ffffffffffffffffffffffffffffffffffffffff163373ffffffffffffffffffffffffffffffffffffffff1614610e15576040517f08c379a0000000000000000000000000000000000000000000000000000000008152600401610e0c90611e7d565b60405180910390fd5b600081610e206107da565b610e2a9190611ecc565b90506005811115610e70576040517f11a8ec57000000000000000000000000000000000000000000000000000000008152600401610e6790611f4c565b60405180910390fd5b610e7a3383611330565b5050565b8060076000610e8b61118d565b73ffffffffffffffffffffffffffffffffffffffff1673ffffffffffffffffffffffffffffffffffffffff16815260200190815260200160002060008473ffffffffffffffffffffffffffffffffffffffff1673ffffffffffffffffffffffffffffffffffffffff16815260200190815260200160002060006101000a81548160ff0219169083151502179055508173ffffffffffffffffffffffffffffffffffffffff16610f3861118d565b73ffffffffffffffffffffffffffffffffffffffff167f17307eab39ab6107e8899845ad3d59bd9653f200f220920489ca2b5937696c3183604051610f7d91906118a5565b60405180910390a35050565b610f948484846107f1565b60008373ffffffffffffffffffffffffffffffffffffffff163b14610ff657610fbf8484848461134e565b610ff5576040517fd1a57ed600000000000000000000000000000000000000000000000000000000815260040160405180910390fd5b5b50505050565b60606110078261112e565b61103d576040517fa14c4b5000000000000000000000000000000000000000000000000000000000815260040160405180910390fd5b600061104761149e565b905060008151036110675760405180602001604052806000815250611092565b8061107184611530565b604051602001611082929190611fa8565b6040516020818303038152906040525b915050919050565b6000600760008473ffffffffffffffffffffffffffffffffffffffff1673ffffffffffffffffffffffffffffffffffffffff16815260200190815260200160002060008373ffffffffffffffffffffffffffffffffffffffff1673ffffffffffffffffffffffffffffffffffffffff16815260200190815260200160002060009054906101000a900460ff16905092915050565b600081611139611195565b11158015611148575060005482105b8015611186575060007c0100000000000000000000000000000000000000000000000000000000600460008581526020019081526020016000205416145b9050919050565b600033905090565b600090565b600080829050806111a9611195565b1161122f5760005481101561122e5760006004600083815260200190815260200160002054905060007c010000000000000000000000000000000000000000000000000000000082160361122c575b600081036112225760046000836001900393508381526020019081526020016000205490506111f8565b8092505050611261565b505b5b6040517fdf2d9b4200000000000000000000000000000000000000000000000000000000815260040160405180910390fd5b919050565b60008060006006600085815260200190815260200160002090508092508254915050915091565b600073ffffffffffffffffffffffffffffffffffffffff8316925073ffffffffffffffffffffffffffffffffffffffff821691508382148383141790509392505050565b50505050565b60008060e883901c905060e86112ee868684611580565b62ffffff16901b9150509392505050565b600073ffffffffffffffffffffffffffffffffffffffff83169250814260a01b178317905092915050565b50505050565b61134a828260405180602001604052806000815250611589565b5050565b60008373ffffffffffffffffffffffffffffffffffffffff1663150b7a0261137461118d565b8786866040518563ffffffff1660e01b81526004016113969493929190612021565b6020604051808303816000875af19250505080156113d257506040513d601f19601f820116820180604052508101906113cf9190612082565b60015b61144b573d8060008114611402576040519150601f19603f3d011682016040523d82523d6000602084013e611407565b606091505b506000815103611443576040517fd1a57ed600000000000000000000000000000000000000000000000000000000815260040160405180910390fd5b805181602001fd5b63150b7a0260e01b7bffffffffffffffffffffffffffffffffffffffffffffffffffffffff1916817bffffffffffffffffffffffffffffffffffffffffffffffffffffffff191614915050949350505050565b6060600880546114ad90611dda565b80601f01602080910402602001604051908101604052809291908181526020018280546114d990611dda565b80156115265780601f106114fb57610100808354040283529160200191611526565b820191906000526020600020905b81548152906001019060200180831161150957829003601f168201915b5050505050905090565b606060a060405101806040526020810391506000825281835b60011561156b57600184039350600a81066030018453600a8104905080611549575b50828103602084039350808452505050919050565b60009392505050565b6115938383611626565b60008373ffffffffffffffffffffffffffffffffffffffff163b1461162157600080549050600083820390505b6115d3600086838060010194508661134e565b611609576040517fd1a57ed600000000000000000000000000000000000000000000000000000000815260040160405180910390fd5b8181106115c057816000541461161e57600080fd5b50505b505050565b60008054905060008203611666576040517fb562e8dd00000000000000000000000000000000000000000000000000000000815260040160405180910390fd5b61167360008483856112d1565b600160406001901b178202600560008573ffffffffffffffffffffffffffffffffffffffff1673ffffffffffffffffffffffffffffffffffffffff168152602001908152602001600020600082825401925050819055506116ea836116db60008660006112d7565b6116e4856117e1565b176112ff565b6004600083815260200190815260200160002081905550600080838301905073ffffffffffffffffffffffffffffffffffffffff85169150828260007fddf252ad1be2c89b69c2b068fc378daa952ba7f163c4a11628f55a4df523b3ef600080a4600183015b81811461178b57808360007fddf252ad1be2c89b69c2b068fc378daa952ba7f163c4a11628f55a4df523b3ef600080a4600181019050611750565b50600082036117c6576040517f2e07630000000000000000000000000000000000000000000000000000000000815260040160405180910390fd5b8060008190555050506117dc600084838561132a565b505050565b60006001821460e11b9050919050565b6000604051905090565b600080fd5b600080fd5b60007fffffffff0000000000000000000000000000000000000000000000000000000082169050919050565b61183a81611805565b811461184557600080fd5b50565b60008135905061185781611831565b92915050565b600060208284031215611873576118726117fb565b5b600061188184828501611848565b91505092915050565b60008115159050919050565b61189f8161188a565b82525050565b60006020820190506118ba6000830184611896565b92915050565b600081519050919050565b600082825260208201905092915050565b60005b838110156118fa5780820151818401526020810190506118df565b60008484015250505050565b6000601f19601f8301169050919050565b6000611922826118c0565b61192c81856118cb565b935061193c8185602086016118dc565b61194581611906565b840191505092915050565b6000602082019050818103600083015261196a8184611917565b905092915050565b6000819050919050565b61198581611972565b811461199057600080fd5b50565b6000813590506119a28161197c565b92915050565b6000602082840312156119be576119bd6117fb565b5b60006119cc84828501611993565b91505092915050565b600073ffffffffffffffffffffffffffffffffffffffff82169050919050565b6000611a00826119d5565b9050919050565b611a10816119f5565b82525050565b6000602082019050611a2b6000830184611a07565b92915050565b611a3a816119f5565b8114611a4557600080fd5b50565b600081359050611a5781611a31565b92915050565b60008060408385031215611a7457611a736117fb565b5b6000611a8285828601611a48565b9250506020611a9385828601611993565b9150509250929050565b611aa681611972565b82525050565b6000602082019050611ac16000830184611a9d565b92915050565b600080600060608486031215611ae057611adf6117fb565b5b6000611aee86828701611a48565b9350506020611aff86828701611a48565b9250506040611b1086828701611993565b9150509250925092565b600060208284031215611b3057611b2f6117fb565b5b6000611b3e84828501611a48565b91505092915050565b611b508161188a565b8114611b5b57600080fd5b50565b600081359050611b6d81611b47565b92915050565b60008060408385031215611b8a57611b896117fb565b5b6000611b9885828601611a48565b9250506020611ba985828601611b5e565b9150509250929050565b600080fd5b600080fd5b7f4e487b7100000000000000000000000000000000000000000000000000000000600052604160045260246000fd5b611bf582611906565b810181811067ffffffffffffffff82111715611c1457611c13611bbd565b5b80604052505050565b6000611c276117f1565b9050611c338282611bec565b919050565b600067ffffffffffffffff821115611c5357611c52611bbd565b5b611c5c82611906565b9050602081019050919050565b82818337600083830152505050565b6000611c8b611c8684611c38565b611c1d565b905082815260208101848484011115611ca757611ca6611bb8565b5b611cb2848285611c69565b509392505050565b600082601f830112611ccf57611cce611bb3565b5b8135611cdf848260208601611c78565b91505092915050565b60008060008060808587031215611d0257611d016117fb565b5b6000611d1087828801611a48565b9450506020611d2187828801611a48565b9350506040611d3287828801611993565b925050606085013567ffffffffffffffff811115611d5357611d52611800565b5b611d5f87828801611cba565b91505092959194509250565b60008060408385031215611d8257611d816117fb565b5b6000611d9085828601611a48565b9250506020611da185828601611a48565b9150509250929050565b7f4e487b7100000000000000000000000000000000000000000000000000000000600052602260045260246000fd5b60006002820490506001821680611df257607f821691505b602082108103611e0557611e04611dab565b5b50919050565b7f4f6e6c7920636f6e7472616374206f776e65722063616e2063616c6c2074686960008201527f732066756e6374696f6e00000000000000000000000000000000000000000000602082015250565b6000611e67602a836118cb565b9150611e7282611e0b565b604082019050919050565b60006020820190508181036000830152611e9681611e5a565b9050919050565b7f4e487b7100000000000000000000000000000000000000000000000000000000600052601160045260246000fd5b6000611ed782611972565b9150611ee283611972565b9250828201905080821115611efa57611ef9611e9d565b5b92915050565b7f596f757220676976656e207175616e7469747920697320696e76616c69640000600082015250565b6000611f36601e836118cb565b9150611f4182611f00565b602082019050919050565b60006020820190508181036000830152611f6581611f29565b9050919050565b600081905092915050565b6000611f82826118c0565b611f8c8185611f6c565b9350611f9c8185602086016118dc565b80840191505092915050565b6000611fb48285611f77565b9150611fc08284611f77565b91508190509392505050565b600081519050919050565b600082825260208201905092915050565b6000611ff382611fcc565b611ffd8185611fd7565b935061200d8185602086016118dc565b61201681611906565b840191505092915050565b60006080820190506120366000830187611a07565b6120436020830186611a07565b6120506040830185611a9d565b81810360608301526120628184611fe8565b905095945050505050565b60008151905061207c81611831565b92915050565b600060208284031215612098576120976117fb565b5b60006120a68482850161206d565b9150509291505056fea26469706673582212202cd1f525ec49a84fea5563e78fddd6d66b403a39db0371e8a06061bd1dad7ea164736f6c6343000813003368747470733a2f2f676174657761792e70696e6174612e636c6f75642f697066732f516d507a7154387a7942766a554c50593759474634466750626a446362335834444c6e7758356768354b543976412f",
  "linkReferences": {},
  "deployedLinkReferences": {}
}